:100000000C942A000C9447000C9447000C94470071
:100010000C9447000C9447000C9447000C94470044
:100020000C9447000C9447000C9447000C94470034
:100030000C9447000C9447000C9447000C94470024
:100040000C9447000C9447000C9447000C94470014
:100050000C94470011241FBECFE5D8E0DEBFCDBF12
:1000600010E0A0E6B0E0E4EFF2E402C005900D92EB
:10007000A438B107D9F710E0A4E8B0E001C01D92A0
:10008000A93EB107E1F70E94901E0C9478210C94D0
:100090000000EF92FF920F931F937B018C0120E0F1
:1000A00030E040E05FE40E94490388238CF0C801FF
:1000B000B70120E030E040E05FE40E94C1010E940F
:1000C000A9039B01AC01205030404040504806C07D
:1000D000C801B7010E94A9039B01AC01B901CA0183
:1000E0001F910F91FF90EF900895A0E0B0E0EBE733
:1000F000F0E00C944121DC012B01FA019C9192303B
:1001000008F439C1EB018881823008F433C194309E
:1001100069F4843009F02FC111969C91119789815F
:10012000981709F428C1A0E6B0E025C1843009F48D
:1001300021C18230A9F4923009F01DC19A01AD01AC
:1001400088E0EA010990AE01E90109929E0181501F
:10015000C1F7E201898111969C918923818308C1AD
:10016000923009F407C112962D903C901397EB0141
:100170008A819B811496AD90BD90CD90DC901797AD
:10018000EC80FD800E811F819101281B390BB90184
:1001900037FF04C066277727621B730B6032710537
:1001A0000CF061C0121613066CF537014801062EDB
:1001B00004C096948794779467940A94D2F721E0C8
:1001C00030E040E050E004C0220F331F441F551FB1
:1001D0006A95D2F721503040404050402E213F21B7
:1001E00040235123211531054105510521F021E01E
:1001F00030E040E050E079018A01E628F72808293C
:1002000019293CC0232BD1F1260E371E350146019A
:10021000062E04C096948794779467940A94D2F734
:1002200021E030E040E050E004C0220F331F441FC3
:10023000551F6A95D2F721503040404050402A2146
:100240003B214C215D21211531054105510521F04E
:1002500021E030E040E050E059016A01A628B728CB
:10026000C828D9280BC0821593052CF01C01AA249C
:10027000BB24650103C0EE24FF24870111969C91E5
:10028000D20111968C91981709F445C0992339F041
:10029000A80197012A193B094C095D0906C0A6016E
:1002A00095012E193F09400B510B57FD08C01182D3
:1002B0003382228224833583468357831DC081E0A5
:1002C00081833382228288279927DC01821B930B4A
:1002D000A40BB50B84839583A683B7830DC0220F2F
:1002E000331F441F551F24833583468357838281E0
:1002F000938101979383828324813581468157813D
:10030000DA01C9010197A109B1098F5F9F4FAF4F72
:10031000BF4328F30BC0918333822282EA0CFB1C7B
:100320000C1D1D1DE482F5820683178383E0808304
:10033000248135814681578157FF1AC0C901AA27F8
:1003400097FDA095BA2F81709070A070B0705695EF
:10035000479537952795822B932BA42BB52B848318
:100360009583A683B7838281938101969383828349
:10037000DF0101C0D201CD01CDB7DEB7E2E10C94BF
:100380005D21A0E2B0E0E7ECF1E00C944D2169833F
:100390007A838B839C832D833E834F835887E9E048
:1003A000EE2EF12CEC0EFD1ECE010196B7010E943F
:1003B000D2048E010F5E1F4FCE010596B8010E9438
:1003C000D2048A8991E089278A8BC701B801AE01DE
:1003D000475E5F4F0E9475000E94FD03A096E6E015
:1003E0000C946921A0E2B0E0E8EFF1E00C944D211B
:1003F00069837A838B839C832D833E834F835887C5
:10040000F9E0EF2EF12CEC0EFD1ECE010196B701A6
:100410000E94D2048E010F5E1F4FCE010596B801D7
:100420000E94D204C701B801AE01475E5F4F0E942F
:1004300075000E94FD03A096E6E00C946921A0E2FD
:10044000B0E0E5E2F2E00C94412169837A838B838A
:100450009C832D833E834F835887CE010196BE0136
:10046000675F7F4F0E94D204CE010596BE016F5E8A
:100470007F4F0E94D2049985923088F0898982301A
:10048000C8F0943019F4823051F404C0843029F457
:10049000923081F480E690E0C6C0923049F420E0CA
:1004A0009A858A89981321E02A87CE010996BBC0D4
:1004B000823049F420E09A858A89981321E02A8BBA
:1004C000CE014196B0C02D843E844F8458886D88FB
:1004D0007E888F88988CEE24FF248701AA24BB2471
:1004E000650140E050E060E070E0E0E0F0E0C10174
:1004F00081709070892BE9F0E60CF71C081D191D1E
:100500009A01AB012A0D3B1D4C1D5D1D80E090E062
:10051000A0E0B0E0E614F7040805190520F481E036
:1005200090E0A0E0B0E0BA01A901480F591F6A1F8E
:100530007B1FAA0CBB1CCC1CDD1C97FE08C081E0F5
:1005400090E0A0E0B0E0A82AB92ACA2ADB2A3196B6
:10055000E032F10549F0660C771C881C991C569412
:10056000479437942794C3CFFA85EA892B893C892D
:100570008B859C85280F391F2E5F3F4F17C0CA01FE
:1005800081709070892B61F016950795F794E79428
:1005900080E090E0A0E0B0E8E82AF92A0A2B1B2BC3
:1005A00076956795579547952F5F3F4F77FDE7CF36
:1005B0000CC0440F551F661F771F17FD4160EE0CDE
:1005C000FF1C001F111F21503040403090E05907A0
:1005D00090E0690790E4790760F32B8F3C8FDB0193
:1005E000CA018F779070A070B07080349105A1051A
:1005F000B10561F447FD0AC0E114F10401051105DC
:1006000029F0405C5F4F6F4F7F4F40781A8EFE1786
:1006100011F081E08A8F4D8F5E8F6F8F78A383E01A
:10062000898FCE0149960E94FD03A096E2E10C94C9
:100630005D21A8E1B0E0EFE1F3E00C944D21698386
:100640007A838B839C832D833E834F83588789E0F5
:10065000E82EF12CEC0EFD1ECE010196B7010E9492
:10066000D2048E010F5E1F4FCE010596B8010E9485
:10067000D2048985823040F08989823028F0C70110
:10068000B8010E944A0501C08FEF6896E6E00C941D
:100690006921A8E1B0E0EFE4F3E00C944D21698317
:1006A0007A838B839C832D833E834F83588789E095
:1006B000E82EF12CEC0EFD1ECE010196B7010E9432
:1006C000D2048E010F5E1F4FCE010596B8010E9425
:1006D000D2048985823040F08989823028F0C701B0
:1006E000B8010E944A0501C08FEF6896E6E00C94BD
:1006F0006921A8E1B0E0EFE7F3E00C944D216983B4
:100700007A838B839C832D833E834F83588789E034
:10071000E82EF12CEC0EFD1ECE010196B7010E94D1
:10072000D2048E010F5E1F4FCE010596B8010E94C4
:10073000D2048985823040F08989823028F0C7014F
:10074000B8010E944A0501C081E06896E6E00C9479
:100750006921ACE0B0E0EFEAF3E00C945121698349
:100760007A838B839C83CE010196BE016B5F7F4FA2
:100770000E94D2048D81823061F1823050F1843048
:1007800021F48E81882351F12EC02F81388537FDC9
:1007900020C06E812F3131051CF06623F9F023C093
:1007A0008EE190E0821B930B29853A854B855C8511
:1007B00004C056954795379527958A95D2F76623B5
:1007C000B1F050954095309521953F4F4F4F5F4F79
:1007D0000EC020E030E040E050E009C02FEF3FEFD6
:1007E0004FEF5FE704C020E030E040E050E8B9019F
:1007F000CA012C96E2E00C946D21DF92EF92FF92F9
:100800000F931F93FC01E480F58006811781D1804E
:100810008081823048F480E090E0A0E1B0E0E82AF6
:10082000F92A0A2B1B2BA5C0843009F49FC0823003
:1008300021F4EE24FF24870105C0E114F104010531
:10084000110519F4E0E0F0E096C0628173819FEF3A
:10085000623879070CF05BC022E83FEF261B370BAC
:100860002A3131052CF020E030E040E050E02AC091
:10087000B801A701022E04C0769567955795479554
:100880000A94D2F781E090E0A0E0B0E004C0880FC5
:10089000991FAA1FBB1F2A95D2F70197A109B10979
:1008A0008E219F21A023B1230097A105B10521F03E
:1008B00081E090E0A0E0B0E09A01AB01282B392B59
:1008C0004A2B5B2BDA01C9018F779070A070B07052
:1008D00080349105A105B10539F427FF09C0205CDA
:1008E0003F4F4F4F5F4F04C0215C3F4F4F4F5F4F13
:1008F000E0E0F0E02030A0E03A07A0E04A07A0E402
:100900005A0710F0E1E0F0E079018A0127C0603871
:10091000710564F5FB01E158FF4FD801C7018F77DE
:100920009070A070B07080349105A105B10539F4C4
:10093000E7FE0DC080E490E0A0E0B0E004C08FE3EB
:1009400090E0A0E0B0E0E80EF91E0A1F1B1F17FFA1
:1009500005C016950795F794E794319687E01695AC
:100960000795F794E7948A95D1F705C0EE24FF2404
:100970008701EFEFF0E06E2F679566276795902F60
:100980009F77D794DD24D7948E2F8695492F462BB9
:10099000582F5D29B701CA011F910F91FF90EF9069
:1009A000DF900895FC01DB01408151812281622F9B
:1009B0006F7770E0221F2227221F9381892F880FD3
:1009C000822B282F30E0991F9927991F11969C930D
:1009D000119721153105A9F54115510561057105DD
:1009E00011F482E037C082E89FEF13969C938E93B8
:1009F00012979A01AB0167E0220F331F441F551F66
:100A00006A95D1F783E08C930DC0220F331F441FEA
:100A1000551F12968D919C911397019713969C9355
:100A20008E931297203080E0380780E0480780E4FA
:100A3000580758F314962D933D934D935C93179755
:100A400008952F3F310579F4411551056105710570
:100A500019F484E08C93089564FF03C081E08C93C3
:100A600012C01C9210C02F57304013963C932E9307
:100A7000129783E08C9387E0440F551F661F771F02
:100A80008A95D1F7706414964D935D936D937C9322
:100A9000179708951F93DC01FB019C91923008F495
:100AA00047C08081823008F443C0943051F41196DD
:100AB0001C91843099F58181682F70E0611B710968
:100AC0003FC0843021F0923031F48230B9F181811D
:100AD000882389F12DC011961C9111978230F1F075
:100AE00081811817D9F412962D913C911397828128
:100AF00093818217930794F028173907BCF0149656
:100B00008D919D910D90BC91A02D248135814681C0
:100B10005781281739074A075B0718F4112341F05A
:100B20000AC082179307A407B50740F4112319F0F0
:100B300061E070E005C06FEF7FEF02C060E070E041
:100B4000CB011F910895DF93CF9300D0CDB7DEB7CF
:100B50009A838983E981FA8180818823B1F4A0E4B2
:100B6000B0E0E0E4F0E080818D7F8C93A0E4B0E021
:100B7000E0E4F0E080818B7F8C93AAE2B0E0EAE2CF
:100B8000F0E080818B7F8C936BC0E981FA8180815A
:100B90008130B1F4A0E4B0E0E0E4F0E08081826074
:100BA0008C93A0E4B0E0E0E4F0E080818B7F8C9354
:100BB000AAE2B0E0EAE2F0E080818B7F8C9350C043
:100BC000E981FA8180818230B1F4A0E4B0E0E0E410
:100BD000F0E080818D7F8C93A0E4B0E0E0E4F0E071
:100BE000808184608C93AAE2B0E0EAE2F0E0808148
:100BF0008B7F8C9335C0E981FA8180818330B1F499
:100C0000A0E4B0E0E0E4F0E0808182608C93A0E4B6
:100C1000B0E0E0E4F0E0808184608C93AAE2B0E090
:100C2000EAE2F0E080818B7F8C931AC0E981FA813F
:100C300080818430A9F4A0E4B0E0E0E4F0E08081B9
:100C400082608C93A0E4B0E0E0E4F0E08081846016
:100C50008C93AAE2B0E0EAE2F0E0808184608C93B9
:100C6000E981FA818181882379F4A0E4B0E0E0E4AD
:100C7000F0E080818F7E8C93A0E4B0E0E0E4F0E0CF
:100C800080818F7D8C9327C0E981FA8181818130B9
:100C900079F4A0E4B0E0E0E4F0E080818F7E8C9312
:100CA000A0E4B0E0E0E4F0E0808180628C9313C0C7
:100CB000E981FA818181823071F4A0E4B0E0E0E45E
:100CC000F0E0808180618C93A0E4B0E0E0E4F0E0AB
:100CD000808180628C93E981FA818281882341F44A
:100CE000A0E4B0E0E0E4F0E08081877F8C930CC06A
:100CF000E981FA818281813039F4A0E4B0E0E0E456
:100D0000F0E0808188608C93E981FA818381882377
:100D1000B1F4AAE2B0E0EAE2F0E080818F778C9350
:100D2000AAE2B0E0EAE2F0E080818F7D8C93AAE253
:100D3000B0E0EAE2F0E080818F7B8C931AC0E98119
:100D4000FA8183818130A9F4AAE2B0E0EAE2F0E01E
:100D5000808180688C93AAE2B0E0EAE2F0E08081D2
:100D600080628C93AAE2B0E0EAE2F0E080818064E5
:100D70008C93E981FA818781813041F4A0E4B0E06D
:100D8000E0E4F0E080818F7B8C930CC0E981FA81F4
:100D90008781882339F4A0E4B0E0E0E4F0E08081CA
:100DA00080648C93E981FA8180858130C1F4ABE263
:100DB000B0E0EBE2F0E0808182608C93A9E2B0E0E9
:100DC000E981FA81848195818C93A0E4B0E0E98186
:100DD000FA8184819581892F99278C931DC0E9819F
:100DE000FA8180858823C1F4ABE2B0E0EBE2F0E069
:100DF00080818D7F8C93A9E2B0E0E981FA818681C0
:100E00008C93A0E4B0E0E981FA818681882F90E09C
:100E1000892F990F990B8C930F900F90CF91DF91A1
:100E20000895DF93CF9300D0CDB7DEB79A8389833F
:100E3000AAE2B0E0EAE2F0E0808180618C93AAE26D
:100E4000B0E0EAE2F0E0808188608C930F900F9030
:100E5000CF91DF910895DF93CF9300D0CDB7DEB768
:100E60009A838983AAE2B0E0EAE2F0E080818F7E93
:100E70008C93AAE2B0E0EAE2F0E08081877F8C9375
:100E80000F900F90CF91DF910895DF93CF930F9242
:100E9000CDB7DEB78983EBE2F0E08081829586955D
:100EA0008770882F90E0817090700097A1F3ECE23A
:100EB000F0E0898180830F90CF91DF910895DF93D7
:100EC000CF930F92CDB7DEB7EBE2F0E08081881FC1
:100ED0008827881F8130C1F7ECE2F0E080818983A8
:100EE000ABE2B0E0EBE2F0E080818F778C93898118
:100EF0000F90CF91DF910895DF93CF9300D0CDB7BE
:100F0000DEB79A8389830BC0E981FA8120818981C8
:100F10009A8101969A838983822F0E944507E981ED
:100F2000FA818081882381F70F900F90CF91DF9114
:100F30000895DF93CF93CDB7DEB782E060E040E065
:100F400020E00E94281582E061E040E020E00E945D
:100F50002815E0E2F0E080E28083E1E2F0E0108238
:100F6000E2E2F0E080E58083E6E5F0E084E0808383
:100F7000CF91DF910895DF93CF93CDB7DEB7E6E54C
:100F8000F0E084EA8083E6E5F0E080818823DCF706
:100F9000CF91DF910895DF93CF93CDB7DEB7E6E52C
:100FA000F0E084E98083CF91DF910895DF93CF93C0
:100FB0000F92CDB7DEB78983E3E2F0E089818083C9
:100FC000E6E5F0E084EC8083E6E5F0E080818823CC
:100FD000DCF70F90CF91DF910895DF93CF930F92BD
:100FE000CDB7DEB7E6E5F0E080818823DCF7A6E543
:100FF000B0E0E6E5F0E0808180648C93A6E5B0E0A7
:10100000E6E5F0E0808184608C93E6E5F0E08081A5
:101010008823DCF7E3E2F0E08081898389810F9007
:10102000CF91DF910895DF93CF930F92CDB7DEB7C5
:10103000E6E5F0E080818823DCF7A6E5B0E0E6E5B0
:10104000F0E0808184608C93E6E5F0E08081882385
:10105000DCF7E3E2F0E08081898389810F90CF9112
:10106000DF910895DF93CF930F92CDB7DEB7E1E222
:10107000F0E08081887F898389810F90CF91DF9113
:101080000895DF93CF9300D000D0CDB7DEB79A8319
:10109000898389819A81009709F488C2E981FA815C
:1010A0008081282F30E03C832B838B819C8183308F
:1010B000910509F427C12B813C81243031058CF442
:1010C0008B819C818130910509F470C02B813C811A
:1010D000223031050CF0BDC08B819C810097A1F0BE
:1010E00065C22B813C812530310509F4BEC18B815D
:1010F0009C81853091050CF45FC12B813C812630A9
:10110000310509F404C252C2A3E5B0E0E3E5F0E022
:101110008081877B8C93E981FA818281813049F4D7
:10112000A9E5B0E0E9E5F0E080818C7F81608C93F7
:101130003DC2E981FA818281882309F037C2E981C1
:10114000FA818381882341F4A3E5B0E0E3E5F0E090
:1011500080818F7C8C932AC2E981FA8183818130DE
:1011600049F4A3E5B0E0E3E5F0E080818F7C8061A5
:101170008C931CC2E981FA818381823049F4A3E512
:10118000B0E0E3E5F0E080818F7C80628C930EC25A
:10119000E981FA818381833009F008C2A3E5B0E0D8
:1011A000E3E5F0E0808180638C9300C2A3E5B0E0CA
:1011B000E3E5F0E08081877B88608C93E981FA81A8
:1011C0008281813049F4A9E5B0E0E9E5F0E0808171
:1011D0008C7F82608C93EAC1E981FA8182818823C5
:1011E00009F0E4C1E981FA818381882341F4A3E510
:1011F000B0E0E3E5F0E080818F7C8C93D7C1E9819A
:10120000FA818381813049F4A3E5B0E0E3E5F0E0C1
:1012100080818F7C80618C93C9C1E981FA8183814F
:10122000823049F4A3E5B0E0E3E5F0E080818F7C13
:1012300080628C93BBC1E981FA818381833009F09C
:10124000B5C1A3E5B0E0E3E5F0E0808180638C9375
:10125000ADC1AFE4B0E0EFE4F0E080818C7F8C932F
:10126000AEE4B0E0EEE4F0E08081877E8C93E9812B
:10127000FA818281813049F4A9E5B0E0E9E5F0E046
:101280008081837C84608C9391C1E981FA81828121
:10129000882309F08BC1E981FA818381882341F495
:1012A000AFE4B0E0EFE4F0E080818F7C8C937EC10E
:1012B000E981FA818381813049F4AFE4B0E0EFE461
:1012C000F0E080818F7C80618C9370C1E981FA812C
:1012D0008381823049F4AFE4B0E0EFE4F0E0808154
:1012E0008F7C80628C9362C1E981FA818381833033
:1012F00009F05CC1AFE4B0E0EFE4F0E0808180632E
:101300008C9354C1AFE4B0E0EFE4F0E080818C7FD7
:101310008C93AEE4B0E0EEE4F0E08081877E8860FC
:101320008C93E981FA818281813049F4A9E5B0E0AA
:10133000E9E5F0E08081837C88618C9337C1E981A5
:10134000FA818281882309F031C1E981FA818381A0
:10135000882341F4AFE4B0E0EFE4F0E080818F7CDB
:101360008C9324C1E981FA818381813049F4AFE40F
:10137000B0E0EFE4F0E080818F7C80618C9316C157
:10138000E981FA818381823049F4AFE4B0E0EFE48F
:10139000F0E080818F7C80628C9308C1E981FA81C2
:1013A0008381833009F002C1AFE4B0E0EFE4F0E004
:1013B000808180638C93FAC0AFE4B0E0EFE4F0E0AA
:1013C00080818C7F8C93AEE4B0E0EEE4F0E080812D
:1013D00088618C93E981FA818281813049F4A9E5A1
:1013E000B0E0E9E5F0E08081837C88618C93DEC029
:1013F000E981FA818281882309F0D8C0E981FA81E4
:101400008381882341F4AFE4B0E0EFE4F0E0808131
:101410008F7C8C93CBC0E981FA818381813049F440
:10142000AFE4B0E0EFE4F0E080818F7C80618C93EA
:10143000BDC0E981FA818381823049F4AFE4B0E034
:10144000EFE4F0E080818F7C80628C93AFC0E98113
:10145000FA818381833009F0A9C0AFE4B0E0EFE402
:10146000F0E0808180638C93A1C0A5E4B0E0E5E466
:10147000F0E08081877B8C93E981FA8182818130E1
:1014800049F4A9E5B0E0E9E5F0E080818F7380647C
:101490008C938CC0E981FA818281882309F086C00F
:1014A000E981FA818381882341F4A5E4B0E0E5E491
:1014B000F0E080818F7C8C9379C0E981FA8183810F
:1014C000813049F4A5E4B0E0E5E4F0E080818F7C70
:1014D00080618C936BC0E981FA818381823049F409
:1014E000A5E4B0E0E5E4F0E080818F7C80628C933D
:1014F0005DC0E981FA818381833009F057C0A5E49A
:10150000B0E0E5E4F0E0808180638C934FC0A5E417
:10151000B0E0E5E4F0E08081877B8C93E981FA819B
:101520008281813049F4A9E5B0E0E9E5F0E080810D
:101530008F7380688C933AC0E981FA818281882315
:10154000A9F5E981FA818381882341F4A5E4B0E01B
:10155000E5E4F0E080818F7C8C9328C0E981FA81FA
:101560008381813049F4A5E4B0E0E5E4F0E08081D6
:101570008F7C80618C931AC0E981FA8183818230EB
:1015800049F4A5E4B0E0E5E4F0E080818F7C80627E
:101590008C930CC0E981FA818381833039F4A5E40E
:1015A000B0E0E5E4F0E0808180638C930F900F90D1
:1015B0000F900F90CF91DF910895DF93CF93CDB728
:1015C000DEB72A970FB6F894DEBF0FBECDBF9A8361
:1015D000898389819A81009709F498C1E981FA8108
:1015E0008081282F30E03A87298789859A85853040
:1015F000910564F429853A85223031050CF08BC0C1
:1016000089859A8599230CF481C107C029853A857B
:10161000273031050CF07AC1FCC0E981FA81818163
:10162000282F30E038872F838F819885833091056C
:1016300009F445C02F813885243031057CF48F8131
:1016400098858130910549F12F8138852230310507
:101650006CF58F8198850097C1F058C12F8138852E
:101660002530310509F43DC08F819885853091057D
:101670007CF12F81388526303105E1F18F81988505
:101680008730910509F43FC041C1A3E5B0E0E3E52F
:10169000F0E08081887F8C9339C1A3E5B0E0E3E579
:1016A000F0E08081887F81608C9330C1A3E5B0E059
:1016B000E3E5F0E08081887F82608C9327C1A3E519
:1016C000B0E0E3E5F0E08081887F83608C931EC109
:1016D000A3E5B0E0E3E5F0E08081887F84608C934F
:1016E00015C1A3E5B0E0E3E5F0E08081887F856087
:1016F0008C930CC1A3E5B0E0E3E5F0E08081887F46
:1017000086608C9303C1A3E5B0E0E3E5F0E080815F
:1017100087608C93FBC0E981FA818181282F30E0BA
:101720003E832D838D819E818330910509F445C0D0
:101730002D813E81243031057CF48D819E81813064
:10174000910549F12D813E81223031056CF58D8165
:101750009E810097C1F0DAC02D813E812530310590
:1017600009F43DC08D819E81853091057CF12D81EC
:101770003E8126303105E1F18D819E8187309105D2
:1017800009F43FC0C3C0AEE4B0E0EEE4F0E0808115
:10179000887F8C93BBC0AEE4B0E0EEE4F0E08081E3
:1017A000887F81608C93B2C0AEE4B0E0EEE4F0E0FC
:1017B0008081887F82608C93A9C0AEE4B0E0EEE4C3
:1017C000F0E08081887F83608C93A0C0AEE4B0E0BD
:1017D000EEE4F0E08081887F84608C9397C0AEE473
:1017E000B0E0EEE4F0E08081887F85608C938EC06D
:1017F000AEE4B0E0EEE4F0E08081887F86608C9318
:1018000085C0AEE4B0E0EEE4F0E0808187608C93C8
:101810007DC0E981FA818181282F30E03C832B83D0
:101820008B819C818330910509F44EC02B813C81D2
:10183000243031057CF48B819C818130910549F104
:101840002B813C81223031056CF58B819C81009786
:10185000C1F05CC02B813C812530310509F44FC0BB
:101860008B819C81853091050CF440C02B813C819B
:101870002830310501F18B819C818930910569F116
:1018800045C0A5E4B0E0E5E4F0E08081887F8C937A
:101890003DC0A5E4B0E0E5E4F0E08081887F8160B0
:1018A0008C9334C0A5E4B0E0E5E4F0E08081887F6B
:1018B00082608C932BC0A5E4B0E0E5E4F0E0808189
:1018C000887F83608C9322C0A5E4B0E0E5E4F0E07B
:1018D0008081887F84608C9319C0A5E4B0E0E5E442
:1018E000F0E08081887F85608C9310C0A5E4B0E033
:1018F000E5E4F0E08081887F86608C9307C0A5E4F2
:10190000B0E0E5E4F0E0808187608C932A960FB622
:10191000F894DEBF0FBECDBFCF91DF910895DF9366
:10192000CF9300D000D0CDB7DEB79A838983898169
:101930009A81009799F1E981FA818081282F30E01E
:101940003C832B838B819C818530910554F42B81C2
:101950003C81223031059CF48B819C819923F4F0E9
:1019600006C02B813C8127303105C4F410C0A3E5AB
:10197000B0E0E3E5F0E08081887F8C930FC0AEE4B7
:10198000B0E0EEE4F0E08081887F8C9307C0A5E4AE
:10199000B0E0E5E4F0E08081887F8C930F900F90B9
:1019A0000F900F90CF91DF910895DF93CF9300D0E8
:1019B00000D0CDB7DEB79A8389837C836B8389811E
:1019C0009A81009779F0E981FA818081882F90E0EF
:1019D00002978330910530F4E6E4F0E08B819C813E
:1019E000918380830F900F900F900F90CF91DF9194
:1019F0000895DF93CF9300D000D000D0CDB7DEB7ED
:101A00009A8389837C836B8389819A81009761F1B2
:101A1000E981FA818081282F30E03E832D838D81FA
:101A20009E818530910554F42D813E81223031050F
:101A300084F48D819E819923BCF006C02D813E8166
:101A4000273031058CF40CC0ECE5F0E08B8180830D
:101A50000BC0EAE4F0E08B819C819183808304C019
:101A6000E3E4F0E08B81808326960FB6F894DEBF26
:101A70000FBECDBFCF91DF910895DF93CF9300D0FC
:101A800000D0CDB7DEB79A83898389819A81009788
:101A900009F42DC4E981FA818081282F30E03C834C
:101AA0002B838B819C818730910509F404C22B81A3
:101AB0003C812830310554F58B819C818330910520
:101AC00009F400C12B813C812430310594F48B81D1
:101AD0009C818130910509F481C02B813C812230A9
:101AE00031050CF0B1C08B819C81009709F43FC097
:101AF000FEC32B813C812530310509F45EC18B8109
:101B00009C81863091050CF097C11AC12B813C81D4
:101B10002B30310509F4C9C28B819C818C30910531
:101B20006CF42B813C812930310509F440C28B8152
:101B30009C818A3091050CF079C2FBC12B813C81DC
:101B40002D30310509F42DC38B819C818D30910599
:101B50000CF4E9C22B813C812E30310509F45EC3BF
:101B60008B819C818F30910509F48EC3C0C3A3E59E
:101B7000B0E0E3E5F0E08081877B80648C93E981CD
:101B8000FA818281813041F4A9E5B0E0E9E5F0E035
:101B9000808183608C93ABC3E981FA818281882341
:101BA00009F0A5C3E981FA818381813049F4A3E575
:101BB000B0E0E3E5F0E080818F7C80628C9397C396
:101BC000E981FA818381882309F091C3A3E5B0E01C
:101BD000E3E5F0E0808180638C9389C3A3E5B0E006
:101BE000E3E5F0E0808188648C93E981FA81828169
:101BF000813041F4A9E5B0E0E9E5F0E0808183605F
:101C00008C9375C3E981FA818281882309F06FC3BF
:101C1000E981FA818381813049F4A3E5B0E0E3E50D
:101C2000F0E080818F7C80628C9361C3E981FA81CE
:101C30008381882309F05BC3A3E5B0E0E3E5F0E02E
:101C4000808180638C9353C3AFE4B0E0EFE4F0E0B5
:101C500080818C7F81608C93AEE4B0E0EEE4F0E0B4
:101C60008081877E8C93E981FA818281813041F481
:101C7000A9E5B0E0E9E5F0E080818C638C9337C39F
:101C8000E981FA818281882309F031C3E981FA81EF
:101C90008381813049F4AFE4B0E0EFE4F0E080818B
:101CA0008F7C80628C9323C3E981FA8183818823AE
:101CB00009F01DC3AFE4B0E0EFE4F0E080818063A1
:101CC0008C9315C3AFE4B0E0EFE4F0E080818C7F4B
:101CD00082608C93AEE4B0E0EEE4F0E08081877E39
:101CE0008C93E981FA818281813041F4A9E5B0E0E9
:101CF000E9E5F0E080818C638C93F9C2E981FA8197
:101D00008281882309F0F3C2E981FA8183818130DD
:101D100049F4AFE4B0E0EFE4F0E080818F7C8062D2
:101D20008C93E5C2E981FA818381882309F0DFC2BF
:101D3000AFE4B0E0EFE4F0E0808180638C93D7C241
:101D4000AFE4B0E0EFE4F0E0808183608C93AEE438
:101D5000B0E0EEE4F0E08081877E8C93E981FA8147
:101D60008281813041F4A9E5B0E0E9E5F0E08081CD
:101D70008C638C93BCC2E981FA818281882309F04B
:101D8000B6C2E981FA818381813049F4AFE4B0E0E1
:101D9000EFE4F0E080818F7C80628C93A8C2E981BF
:101DA000FA818381882309F0A2C2AFE4B0E0EFE4B6
:101DB000F0E0808180638C939AC2AFE4B0E0EFE4FE
:101DC000F0E080818C7F81608C93AEE4B0E0EEE443
:101DD000F0E08081877E88608C93E981FA8182813E
:101DE000813041F4A9E5B0E0E9E5F0E080818C6361
:101DF0008C937DC2E981FA818281882309F077C2C0
:101E0000E981FA818381813049F4AFE4B0E0EFE405
:101E1000F0E080818F7C80628C9369C2E981FA81D5
:101E20008381882309F063C2AFE4B0E0EFE4F0E01F
:101E3000808180638C935BC2AFE4B0E0EFE4F0E0BC
:101E400080818C7F82608C93AEE4B0E0EEE4F0E0C1
:101E50008081877E88608C93E981FA8182818130DC
:101E600041F4A9E5B0E0E9E5F0E080818C638C9372
:101E70003EC2E981FA818281882309F038C2E98172
:101E8000FA818381813049F4AFE4B0E0EFE4F0E01F
:101E900080818F7C80628C932AC2E981FA81838160
:101EA000882309F024C2AFE4B0E0EFE4F0E08081E1
:101EB00080638C931CC2AFE4B0E0EFE4F0E080817B
:101EC00083608C93AEE4B0E0EEE4F0E08081877E46
:101ED00088608C93E981FA818281813041F4A9E59F
:101EE000B0E0E9E5F0E080818C638C9300C2E98189
:101EF000FA818281882309F0FAC1E981FA8183811C
:101F0000813049F4AFE4B0E0EFE4F0E080818F7C11
:101F100080628C93ECC1E981FA818381882309F086
:101F2000E6C1AFE4B0E0EFE4F0E0808180638C9341
:101F3000DEC1AFE4B0E0EFE4F0E080818C7F8C9311
:101F4000AEE4B0E0EEE4F0E08081877E80618C93C7
:101F5000E981FA818281813041F4A9E5B0E0E9E5C7
:101F6000F0E080818C638C93C2C1E981FA81828127
:101F7000882309F0BCC1E981FA818381813049F469
:101F8000AFE4B0E0EFE4F0E080818F7C80628C937E
:101F9000AEC1E981FA818381882309F0A8C1AFE449
:101FA000B0E0EFE4F0E0808180638C93A0C1AFE407
:101FB000B0E0EFE4F0E080818C7F81608C93AEE450
:101FC000B0E0EEE4F0E08081877E80618C93E9816F
:101FD000FA818281813041F4A9E5B0E0E9E5F0E0E1
:101FE00080818C638C9383C1E981FA81828188230B
:101FF00009F07DC1E981FA818381813049F4AFE440
:10200000B0E0EFE4F0E080818F7C80628C936FC160
:10201000E981FA818381882309F069C1AFE4B0E0E6
:10202000EFE4F0E0808180638C9361C1AFE4B0E0C5
:10203000EFE4F0E080818C7F82608C93AEE4B0E0CE
:10204000EEE4F0E08081877E80618C93E981FA8103
:102050008281813041F4A9E5B0E0E9E5F0E08081DA
:102060008C638C9344C1E981FA818281882309F0D1
:102070003EC1E981FA818381813049F4AFE4B0E067
:10208000EFE4F0E080818F7C80628C9330C1E98145
:10209000FA818381882309F02AC1AFE4B0E0EFE43C
:1020A000F0E0808180638C9322C1AFE4B0E0EFE484
:1020B000F0E0808183608C93AEE4B0E0EEE4F0E089
:1020C0008081877E80618C93E981FA818281813071
:1020D00041F4A9E5B0E0E9E5F0E080818C638C9300
:1020E00006C1E981FA818281882309F000C1E98172
:1020F000FA818381813049F4AFE4B0E0EFE4F0E0AD
:1021000080818F7C80628C93F2C0E981FA81838127
:10211000882309F0ECC0AFE4B0E0EFE4F0E08081A8
:1021200080638C93E4C0AFE4B0E0EFE4F0E0808142
:102130008C7F82608C93AEE4B0E0EEE4F0E08081CE
:1021400088618C93E981FA818281813041F4A9E52B
:10215000B0E0E9E5F0E080818C638C93C8C0E98150
:10216000FA818281882309F0C2C0E981FA818381E2
:10217000813049F4AFE4B0E0EFE4F0E080818F7C9F
:1021800080628C93B4C0E981FA818381882309F04D
:10219000AEC0AFE4B0E0EFE4F0E0808180638C9308
:1021A000A6C0AFE4B0E0EFE4F0E0808183608C9300
:1021B000AEE4B0E0EEE4F0E0808188618C93E981E8
:1021C000FA818281813041F4A9E5B0E0E9E5F0E0EF
:1021D00080818C638C938BC0E981FA818281882312
:1021E00009F085C0E981FA818381813049F4AFE447
:1021F000B0E0EFE4F0E080818F7C80628C9377C068
:10220000E981FA818381882309F071C0AFE4B0E0ED
:10221000EFE4F0E0808180638C9369C0A5E4B0E0D6
:10222000E5E4F0E08081877B80648C93E981FA812A
:102230008281813041F4A9E5B0E0E9E5F0E08081F8
:10224000806C8C9354C0E981FA818281882309F0E3
:102250004EC0E981FA818381813049F4A5E4B0E080
:10226000EFE4F0E080818F7C80628C9340C0E98154
:10227000FA8183818823D9F5A5E4B0E0EFE4F0E0AA
:10228000808180638C9333C0A5E4B0E0E5E4F0E0A6
:10229000808188648C93E981FA818281813041F464
:1022A000A9E5B0E0E9E5F0E08081806C8C931FC087
:1022B000E981FA8182818823D1F4E981FA818381DD
:1022C000813049F4A5E4B0E0EFE4F0E080818F7C58
:1022D00080628C930CC0E981FA818381882339F470
:1022E000A5E4B0E0EFE4F0E0808180638C930F9090
:1022F0000F900F900F90CF91DF910895DF93CF93C0
:1023000000D000D0CDB7DEB79A8389837C836B83FE
:1023100089819A81009779F0E981FA818081882FFB
:1023200090E002978C30910530F4E6E4F0E08B8188
:102330009C81918380830F900F900F900F90CF918D
:10234000DF910895DF93CF9300D000D000D0CDB7B8
:10235000DEB79A8389837C836B8389819A81009716
:1023600061F1E981FA818081282F30E03E832D835D
:102370008D819E818E30910554F42D813E812230D5
:10238000310584F48D819E819923BCF006C02D8196
:102390003E81203131058CF40CC0ECE5F0E08B81FE
:1023A00080830BC0EAE4F0E08B819C819183808381
:1023B00004C0E3E4F0E08B81808326960FB6F894A6
:1023C000DEBF0FBECDBFCF91DF910895DF93CF93D6
:1023D000CDB7DEB72A970FB6F894DEBF0FBECDBFDC
:1023E0009A83898389819A81009709F498C1E98148
:1023F000FA818081282F30E03A87298789859A855C
:102400008E30910564F429853A85223031050CF02F
:102410008BC089859A8599230CF481C107C02985D1
:102420003A85203131050CF07AC1FCC0E981FA818E
:102430008181282F30E038872F838F8198858330E2
:10244000910509F445C02F813885243031057CF48D
:102450008F8198858130910549F12F81388522300F
:1024600031056CF58F8198850097C1F058C12F8197
:1024700038852530310509F43DC08F819885853038
:1024800091057CF12F81388526303105E1F18F816E
:1024900098858730910509F43FC041C1A3E5B0E0BC
:1024A000E3E5F0E08081887F8C9339C1A3E5B0E05B
:1024B000E3E5F0E08081887F81608C9330C1A3E503
:1024C000B0E0E3E5F0E08081887F82608C9327C1F3
:1024D000A3E5B0E0E3E5F0E08081887F83608C9342
:1024E0001EC1A3E5B0E0E3E5F0E08081887F846071
:1024F0008C9315C1A3E5B0E0E3E5F0E08081887F2F
:1025000085608C930CC1A3E5B0E0E3E5F0E0808149
:10251000887F86608C9303C1A3E5B0E0E3E5F0E03B
:10252000808187608C93FBC0E981FA818181282FAB
:1025300030E03E832D838D819E818330910509F4A7
:1025400045C02D813E81243031057CF48D819E81F2
:102550008130910549F12D813E81223031056CF5A4
:102560008D819E810097C1F0DAC02D813E8125309A
:10257000310509F43DC08D819E81853091057CF146
:102580002D813E8126303105E1F18D819E8187309C
:10259000910509F43FC0C3C0AEE4B0E0EEE4F0E062
:1025A0008081887F8C93BBC0AEE4B0E0EEE4F0E0C5
:1025B0008081887F81608C93B2C0AEE4B0E0EEE4AD
:1025C000F0E08081887F82608C93A9C0AEE4B0E0A7
:1025D000EEE4F0E08081887F83608C93A0C0AEE45D
:1025E000B0E0EEE4F0E08081887F84608C9397C057
:1025F000AEE4B0E0EEE4F0E08081887F85608C930B
:102600008EC0AEE4B0E0EEE4F0E08081887F8660CA
:102610008C9385C0AEE4B0E0EEE4F0E080818760AA
:102620008C937DC0E981FA818181282F30E03C8341
:102630002B838B819C818330910509F44EC02B81C3
:102640003C81243031057CF48B819C818130910563
:1026500049F12B813C81223031056CF58B819C81C5
:102660000097C1F05CC02B813C812530310509F415
:102670004FC08B819C81853091050CF440C02B812B
:102680003C812830310501F18B819C818930910595
:1026900069F145C0A5E4B0E0E5E4F0E08081887F21
:1026A0008C933DC0A5E4B0E0E5E4F0E08081887F54
:1026B00081608C9334C0A5E4B0E0E5E4F0E0808173
:1026C000887F82608C932BC0A5E4B0E0E5E4F0E065
:1026D0008081887F83608C9322C0A5E4B0E0E5E42C
:1026E000F0E08081887F84608C9319C0A5E4B0E01D
:1026F000E5E4F0E08081887F85608C9310C0A5E4DC
:10270000B0E0E5E4F0E08081887F86608C9307C0CC
:10271000A5E4B0E0E5E4F0E0808187608C932A9640
:102720000FB6F894DEBF0FBECDBFCF91DF910895F5
:10273000DF93CF9300D000D0CDB7DEB79A838983E3
:1027400089819A81009799F1E981FA818081282F06
:1027500030E03C832B838B819C818E30910554F437
:102760002B813C81223031059CF48B819C81992303
:10277000F4F006C02B813C8120313105C4F410C037
:10278000A3E5B0E0E3E5F0E08081887F8C930FC0A3
:10279000AEE4B0E0EEE4F0E08081887F8C9307C087
:1027A000A5E4B0E0E5E4F0E08081887F8C930F90B1
:1027B0000F900F900F90CF91DF910895DF93CF93FB
:1027C000CDB7DEB7AFE5B0E0EFE5F0E0808180683F
:1027D0008C93CF91DF910895DF93CF93CDB7DEB780
:1027E000AFE5B0E0EFE5F0E080818F778C93CF919B
:1027F000DF910895DF93CF9300D000D0CDB7DEB73F
:102800009A838983E981FA818081282F30E03C8393
:102810002B838B819C818130910509F45EC02B81D3
:102820003C812230310509F4AAC08B819C8100973C
:1028300009F0CCC0E981FA818181882379F4A5E58A
:10284000B0E0E5E5F0E080818C7F8C93ABE5B0E013
:10285000EBE5F0E0808180648C93B8C0E981FA8177
:102860008181813081F4A5E5B0E0E5E5F0E080818B
:102870008C7F81608C93ABE5B0E0EBE5F0E080818C
:1028800080648C93A3C0E981FA818181823081F4D4
:10289000A5E5B0E0E5E5F0E080818C7F82608C9377
:1028A000ABE5B0E0EBE5F0E0808180648C938EC016
:1028B000E981FA818181833009F088C0A5E5B0E023
:1028C000E5E5F0E0808183608C93ABE5B0E0EBE57B
:1028D000F0E0808180648C9379C0E981FA81818104
:1028E000882379F4A5E5B0E0E5E5F0E08081837F19
:1028F0008C93ABE5B0E0EBE5F0E0808180688C93F1
:1029000065C0E981FA818181813081F4A5E5B0E07B
:10291000E5E5F0E08081837F84608C93ABE5B0E0F7
:10292000EBE5F0E0808180688C9350C0E981FA810A
:102930008181823081F4A5E5B0E0E5E5F0E08081B9
:10294000837F88608C93ABE5B0E0EBE5F0E08081BD
:1029500080688C933BC0E981FA8181818330B1F535
:10296000A5E5B0E0E5E5F0E080818C608C93ABE517
:10297000B0E0EBE5F0E0808180688C9327C0E981CE
:10298000FA818181823079F4A4E5B0E0E4E5F0E0F9
:1029900080818F7B8C93ABE5B0E0EBE5F0E080814C
:1029A00080628C9313C0E981FA818181833071F454
:1029B000A4E5B0E0E4E5F0E0808180648C93ABE5D1
:1029C000B0E0EBE5F0E0808180628C930F900F9097
:1029D0000F900F90CF91DF910895DF93CF9300D0A8
:1029E00000D0CDB7DEB79A838983E981FA818081EF
:1029F000282F30E03C832B838B819C818130910593
:102A000089F02B813C8122303105A1F08B819C81A2
:102A10000097B9F4ABE5B0E0EBE5F0E080818F7BA7
:102A20008C930FC0ABE5B0E0EBE5F0E080818F77F1
:102A30008C9307C0ABE5B0E0EBE5F0E080818F7DE3
:102A40008C930F900F900F900F90CF91DF9108957E
:102A5000DF93CF9300D000D0CDB7DEB789836A83F0
:102A60004B832C8389816A814B810E944315898124
:102A70006A814C810E9443160F900F900F900F9027
:102A8000CF91DF910895DF93CF93CDB7DEB727972E
:102A90000FB6F894DEBF0FBECDBF89836A834B8328
:102AA0008B81813009F06FC08981282F30E03F830E
:102AB0002E838E819F818130910549F12E813F8146
:102AC000223031052CF48E819F81009761F0D2C0B5
:102AD0002E813F812230310571F18E819F818330BB
:102AE0009105E9F1C7C0AAE3B0E0EAE3F0E0808134
:102AF000482F8A81282F30E081E090E0022E02C02A
:102B0000880F991F0A94E2F7842B8C93B3C0A7E334
:102B1000B0E0E7E3F0E08081482F8A81282F30E0A1
:102B200081E090E0022E02C0880F991F0A94E2F71C
:102B3000842B8C939FC0A4E3B0E0E4E3F0E08081B9
:102B4000482F8A81282F30E081E090E0022E02C0D9
:102B5000880F991F0A94E2F7842B8C938BC0A1E312
:102B6000B0E0E1E3F0E08081482F8A81282F30E057
:102B700081E090E0022E02C0880F991F0A94E2F7CC
:102B8000842B8C9377C08B81882309F073C0898153
:102B9000282F30E03D832C838C819D8181309105ED
:102BA00059F12C813D81223031052CF48C819D819D
:102BB000009769F05FC02C813D812230310589F199
:102BC0008C819D818330910509F440C053C0AAE3F4
:102BD000B0E0EAE3F0E08081482F8A81282F30E0DE
:102BE00081E090E0022E02C0880F991F0A94E2F75C
:102BF000809584238C933EC0A7E3B0E0E7E3F0E048
:102C00008081482F8A81282F30E081E090E0022ED9
:102C100002C0880F991F0A94E2F7809584238C9351
:102C200029C0A4E3B0E0E4E3F0E08081482F8A818A
:102C3000282F30E081E090E0022E02C0880F991F1B
:102C40000A94E2F7809584238C9314C0A1E3B0E04A
:102C5000E1E3F0E08081482F8A81282F30E081E095
:102C600090E0022E02C0880F991F0A94E2F7809527
:102C700084238C9327960FB6F894DEBF0FBECDBF8A
:102C8000CF91DF910895DF93CF93CDB7DEB727972C
:102C90000FB6F894DEBF0FBECDBF89836A834B8326
:102CA0008B81813009F06FC08981282F30E03F830C
:102CB0002E838E819F818130910549F12E813F8144
:102CC000223031052CF48E819F81009761F0D2C0B3
:102CD0002E813F812230310571F18E819F818330B9
:102CE0009105E9F1C7C0ABE3B0E0EBE3F0E0808130
:102CF000482F8A81282F30E081E090E0022E02C028
:102D0000880F991F0A94E2F7842B8C93B3C0A8E331
:102D1000B0E0E8E3F0E08081482F8A81282F30E09E
:102D200081E090E0022E02C0880F991F0A94E2F71A
:102D3000842B8C939FC0A5E3B0E0E5E3F0E08081B5
:102D4000482F8A81282F30E081E090E0022E02C0D7
:102D5000880F991F0A94E2F7842B8C938BC0A2E30F
:102D6000B0E0E2E3F0E08081482F8A81282F30E054
:102D700081E090E0022E02C0880F991F0A94E2F7CA
:102D8000842B8C9377C08B81882309F073C0898151
:102D9000282F30E03D832C838C819D8181309105EB
:102DA00059F12C813D81223031052CF48C819D819B
:102DB000009769F05FC02C813D812230310589F197
:102DC0008C819D818330910509F440C053C0ABE3F1
:102DD000B0E0EBE3F0E08081482F8A81282F30E0DB
:102DE00081E090E0022E02C0880F991F0A94E2F75A
:102DF000809584238C933EC0A8E3B0E0E8E3F0E044
:102E00008081482F8A81282F30E081E090E0022ED7
:102E100002C0880F991F0A94E2F7809584238C934F
:102E200029C0A5E3B0E0E5E3F0E08081482F8A8186
:102E3000282F30E081E090E0022E02C0880F991F19
:102E40000A94E2F7809584238C9314C0A2E3B0E047
:102E5000E2E3F0E08081482F8A81282F30E081E092
:102E600090E0022E02C0880F991F0A94E2F7809525
:102E700084238C9327960FB6F894DEBF0FBECDBF88
:102E8000CF91DF910895DF93CF9300D000D00F92C0
:102E9000CDB7DEB78A836B8319828A81282F30E011
:102EA0003D832C834C815D814130510541F18C8102
:102EB0009D818230910534F42C813D8121153105AD
:102EC00061F052C04C815D814230510551F18C81DD
:102ED0009D8183309105B9F147C0E9E3F0E080813D
:102EE000282F30E08B81882F90E0A90102C05595F2
:102EF00047958A95E2F7CA018170898335C0E6E378
:102F0000F0E08081282F30E08B81882F90E0A901AC
:102F100002C0559547958A95E2F7CA018170898369
:102F200023C0E3E3F0E08081282F30E08B81882FFD
:102F300090E0A90102C0559547958A95E2F7CA012C
:102F40008170898311C0E0E3F0E08081282F30E0B8
:102F50008B81882F90E0A90102C0559547958A95ED
:102F6000E2F7CA018170898389810F900F900F90D9
:102F70000F900F90CF91DF910895DF93CF9300D002
:102F800000D0CDB7DEB789836A838981282F30E0EE
:102F90003C832B838B819C818130910549F12B816E
:102FA0003C81223031052CF48B819C81009761F0AB
:102FB0005AC02B813C812230310571F18B819C817B
:102FC00083309105E9F14FC0ABE3B0E0EBE3F0E013
:102FD0008081482F8A81282F30E081E090E0022E06
:102FE00002C0880F991F0A94E2F784278C933BC094
:102FF000A8E3B0E0E8E3F0E08081482F8A81282F41
:1030000030E081E090E0022E02C0880F991F0A9400
:10301000E2F784278C9327C0A5E3B0E0E5E3F0E076
:103020008081482F8A81282F30E081E090E0022EB5
:1030300002C0880F991F0A94E2F784278C9313C06B
:10304000A2E3B0E0E2E3F0E08081482F8A81282FFC
:1030500030E081E090E0022E02C0880F991F0A94B0
:10306000E2F784278C930F900F900F900F90CF91E1
:10307000DF910895DF93CF9300D000D000D0CDB77B
:10308000DEB789836A838A81813099F58981282F07
:1030900030E03E832D838D819E8181309105D1F07A
:1030A0002D813E81223031052CF48D819E81009747
:1030B00061F050C02D813E812230310581F08D813B
:1030C0009E818330910581F045C0EAE3F0E08FEF07
:1030D000808340C0E7E3F0E08FEF80833BC0E4E310
:1030E000F0E08FEF808336C0E1E3F0E08FEF808384
:1030F00031C08A81882371F58981282F30E03C8393
:103100002B838B819C8181309105C9F02B813C817F
:10311000223031052CF48B819C81009761F01AC01C
:103120002B813C812230310571F08B819C81833071
:10313000910569F00FC0EAE3F0E010820BC0E7E30D
:10314000F0E0108207C0E4E3F0E0108203C0E1E3A6
:10315000F0E0108226960FB6F894DEBF0FBECDBF0A
:10316000CF91DF910895DF93CF93CDB7DEB7289746
:103170000FB6F894DEBF0FBECDBF89836A83898105
:10318000282F30E038872F838F81988581309105F3
:10319000E9F02F813885223031052CF48F81988514
:1031A000009761F02AC02F81388522303105B1F0B7
:1031B0008F81988583309105C9F01FC0EBE3F0E063
:1031C0009081EBE3F0E08A81808317C0E8E3F0E0D0
:1031D0002081E8E3F0E08A8180830FC0E5E3F0E03E
:1031E0003081E5E3F0E08A81808307C0E2E3F0E02C
:1031F0008081E2E3F0E08A81808328960FB6F8941C
:10320000DEBF0FBECDBFCF91DF910895DF93CF9387
:1032100000D000D0CDB7DEB78A8319828A81282FEB
:1032200030E03C832B838B819C8181309105D1F0F0
:103230002B813C81223031052CF48B819C810097BD
:1032400061F01EC02B813C812230310581F08B81E1
:103250009C818330910581F013C0E9E3F0E0808127
:1032600089830EC0E6E3F0E08081898309C0E3E34F
:10327000F0E08081898304C0E0E3F0E0808189830D
:1032800089810F900F900F900F90CF91DF9108954B
:10329000DF93CF9300D000D000D0CDB7DEB78983C5
:1032A0006A838A81813009F03FC08981282F30E00C
:1032B0003E832D838D819E8181309105E9F02D81A2
:1032C0003E81223031052CF48D819E81009761F082
:1032D0006DC02D813E8122303105B1F08D819E81FE
:1032E00083309105C9F062C0AAE3B0E0EAE3F0E000
:1032F00080818F608C935AC0A7E3B0E0E7E3F0E0F1
:1033000080818F608C9352C0A4E3B0E0E4E3F0E0EE
:1033100080818F608C934AC0A1E3B0E0E1E3F0E0EC
:1033200080818F608C9342C08A81882309F03EC0DF
:103330008981282F30E03C832B838B819C818130D5
:103340009105E9F02B813C81223031052CF48B81F1
:103350009C81009761F02AC02B813C81223031058D
:10336000B1F08B819C8183309105C9F01FC0AAE325
:10337000B0E0EAE3F0E08081807F8C9317C0A7E3A0
:10338000B0E0E7E3F0E08081807F8C930FC0A4E39E
:10339000B0E0E4E3F0E08081807F8C9307C0A1E39C
:1033A000B0E0E1E3F0E08081807F8C9326960FB659
:1033B000F894DEBF0FBECDBFCF91DF910895DF93AC
:1033C000CF9300D000D000D0CDB7DEB789836A8319
:1033D0008A81813009F03FC08981282F30E03E8307
:1033E0002D838D819E8181309105E9F02D813E8173
:1033F000223031052CF48D819E81009761F06DC0E3
:103400002D813E8122303105B1F08D819E81833046
:103410009105C9F062C0AAE3B0E0EAE3F0E0808180
:10342000806F8C935AC0A7E3B0E0E7E3F0E08081BF
:10343000806F8C9352C0A4E3B0E0E4E3F0E08081BD
:10344000806F8C934AC0A1E3B0E0E1E3F0E08081BB
:10345000806F8C9342C08A81882309F03EC08981A5
:10346000282F30E03C832B838B819C818130910518
:10347000E9F02B813C81223031052CF48B819C8139
:10348000009761F02AC02B813C8122303105B1F0D8
:103490008B819C8183309105C9F01FC0AAE3B0E005
:1034A000EAE3F0E080818F708C9317C0A7E3B0E06F
:1034B000E7E3F0E080818F708C930FC0A4E3B0E06D
:1034C000E4E3F0E080818F708C9307C0A1E3B0E06B
:1034D000E1E3F0E080818F708C9326960FB6F8942C
:1034E000DEBF0FBECDBFCF91DF910895DF93CF93A5
:1034F00000D000D0CDB7DEB789836A838981282FB9
:1035000030E03C832B838B819C818130910509F1D4
:103510002B813C81223031052CF48B819C810097DA
:1035200061F03AC02B813C8122303105F1F08B8172
:103530009C818330910529F12FC0ABE3B0E0EBE330
:10354000F0E08081982F907F8A818F70892B8C93F7
:1035500023C0A8E3B0E0E8E3F0E08081982F907FFB
:103560008A818F70892B8C9317C0A5E3B0E0E5E3C7
:10357000F0E08081982F907F8A818F70892B8C93C7
:103580000BC0A2E3B0E0E2E3F0E08081982F907FEF
:103590008A818F70892B8C930F900F900F900F90D2
:1035A000CF91DF910895DF93CF9300D000D0CDB7B6
:1035B000DEB789836A838981282F30E03C832B839F
:1035C0008B819C818130910509F12B813C812230D6
:1035D00031052CF48B819C81009761F03AC02B81DE
:1035E0003C8122303105F1F08B819C818330910543
:1035F00029F12FC0ABE3B0E0EBE3F0E08081982F3E
:103600009F708A81807F892B8C9323C0A8E3B0E0D0
:10361000E8E3F0E08081982F9F708A81807F892B7A
:103620008C9317C0A5E3B0E0E5E3F0E08081982F2C
:103630009F708A81807F892B8C930BC0A2E3B0E0BE
:10364000E2E3F0E08081982F9F708A81807F892B50
:103650008C930F900F900F900F90CF91DF91089562
:10366000DF93CF9300D0CDB7DEB79A83898389816A
:103670009A81009741F189819A810E943D0DE981EB
:10368000FA818081883051F0E981FA8180818A3025
:1036900029F0E981FA8180818C3049F489819A810D
:1036A000E981FA8125813681B9010E947E11E98183
:1036B000FA81248189819A81622F0E94681B898105
:1036C0009A810E94E6110F900F90CF91DF9108959B
:1036D000DF93CF9300D000D00F92CDB7DEB79A839F
:1036E00089836B838B81282F30E03D832C838C81F1
:1036F0009D818130910599F02C813D8122303105E9
:10370000C1F08C819D810097E9F489819A81E981DA
:10371000FA8127813085B9010E94A21113C08981E5
:103720009A81E981FA8121853285B9010E94A2112D
:1037300009C089819A81E981FA8123853485B9019B
:103740000E94A2110F900F900F900F900F90CF91A9
:10375000DF910895DF93CF9300D0CDB7DEB79A8382
:10376000898389819A810E94E6110F900F90CF91F1
:10377000DF910895DF93CF9300D0CDB7DEB79A8362
:10378000898389819A810E9498130F900F90CF911D
:10379000DF910895DF93CF9300D00F92CDB7DEB7BE
:1037A0009B838A8319828A819B810097B9F1EA8180
:1037B000FB81808181708823A9F4EA81FB8180816B
:1037C00086958370282FEA81FB8180818695869576
:1037D00086958770982F822F692F40E021E00E9404
:1037E00028151AC0EA81FB81808181708823A1F0AD
:1037F000EA81FB81808186958370282FEA81FB8195
:1038000080818695869586958770982F822F692F5F
:1038100040E020E00E94281581E0898389810F9093
:103820000F900F90CF91DF910895DF93CF93CDB795
:10383000DEB728970FB6F894DEBF0FBECDBF9C83CE
:103840008B837E836D831A828B819C81009709F420
:1038500044C0EB81FC81808186958370282FEB81A9
:10386000FC8180818695869586958770982F822F1A
:10387000692F0E9443178983EB81FC8180818170CD
:10388000282F30E038872F838F819885009731F07B
:103890002F8138852130310581F01DC08981882331
:1038A00021F4ED81FE81108216C08981813099F466
:1038B000ED81FE8181E080830EC08981882329F417
:1038C000ED81FE8181E0808306C08981813019F419
:1038D000ED81FE81108281E08A838A8128960FB66D
:1038E000F894DEBF0FBECDBFCF91DF910895DF9377
:1038F000CF9300D0CDB7DEB79A83898389819A812F
:103900000097A9F1E981FA81808181708823A9F06B
:10391000E981FA81808186958370282FE981FA8177
:1039200080818695869586958770982F822F692F3E
:1039300041E021E00E9428151AC0E981FA818081C6
:1039400081708823A1F4E981FA8180818695837052
:10395000282FE981FA8180818695869586958770E2
:10396000982F822F692F41E020E00E9428150F90A8
:103970000F90CF91DF910895DF93CF9300D0CDB713
:10398000DEB79A83898389819A810097A1F0E981C2
:10399000FA81808186958370282FE981FA81808160
:1039A0008695869586958770982F822F692F41E09E
:1039B00021E00E9428150F900F90CF91DF9108957C
:1039C000DF93CF9300D0CDB7DEB79A838983898107
:1039D0009A810097A1F0E981FA81808186958370B0
:1039E000282FE981FA818081869586958695877052
:1039F000982F822F692F41E020E00E9428150F9018
:103A00000F90CF91DF910895DF93CF9300D0CDB782
:103A1000DEB79A83898389819A81009791F0E98141
:103A2000FA81808186958370282FE981FA818081CF
:103A30008695869586958770982F822F692F0E948C
:103A4000BD170F900F90CF91DF910895DF93CF9323
:103A5000CDB7DEB70E949907CF91DF910895DF932C
:103A6000CF9300D000D0CDB7DEB789836A834B8374
:103A70000E94BB070E943208883011F01C8222C0CD
:103A800082EA0E94D6070E943208883119F081E04C
:103A90008C8318C089810E94D6070E943208883220
:103AA00019F082E08C830EC08A810E94D6070E94A2
:103AB0003208883219F083E08C8304C00E94CB075F
:103AC00084E08C838C810F900F900F900F90CF919A
:103AD000DF910895DF93CF9300D000D00F92CDB740
:103AE000DEB789837B836A834C830E94BB070E9475
:103AF0003208883011F01D8230C082EA0E94D60759
:103B00000E943208883119F081E08D8326C08981B6
:103B10000E94D6070E943208883219F082E08D8315
:103B20001CC00E94BB070E943208803119F083E05C
:103B30008D8313C083EA0E94D6070E943208803426
:103B400019F084E08D8309C00E941308EA81FB818B
:103B500080830E94CB0785E08D838D810F900F902D
:103B60000F900F900F90CF91DF910895DF93CF9337
:103B700000D0CDB7DEB79A838983E981FA8180814D
:103B80008370282FE981FA818081869586958770D8
:103B9000982F822F692F41E00E9443150F900F90BC
:103BA000CF91DF910895DF93CF9300D000D0CDB7B0
:103BB000DEB79C838B83EB81FC8180818370282F0F
:103BC000EB81FC818081869586958770982F822F66
:103BD000692F41E00E9443161A82198205C089812B
:103BE0009A8101969A83898389819A812EE4803211
:103BF0009207ACF3EB81FC8180818370282FEB81ED
:103C0000FC818081869586958770982F822F692FF9
:103C100040E00E9443160F900F900F900F90CF91AD
:103C2000DF910895DF93CF9300D000D000D0CDB7BF
:103C3000DEB79E838D83ED81FE8180818370282F86
:103C4000ED81FE818081869586958770982F822FE1
:103C5000692F41E00E94431619821A821B821C823E
:103C60000BC089819A81AB81BC810196A11DB11DD8
:103C700089839A83AB83BC8389819A81AB81BC8120
:103C8000803828E3920721E0A20720E0B20748F33A
:103C9000ED81FE8180818370282FED81FE818081FE
:103CA000869586958770982F822F692F40E00E9415
:103CB000431626960FB6F894DEBF0FBECDBFCF9148
:103CC000DF910895DF93CF93CDB7DEB710928400D4
:103CD00089E690E00E94771C8AE690E00E94771CBB
:103CE0008BE690E00E94771C85E790E00E94301BF5
:103CF0008CE690E00E94A30582E890E00E94B61D49
:103D00000E94261DCF91DF910895DF93CF93CDB709
:103D1000DEB78CE690E00E941107CF91DF91089505
:103D20000F931F93DF93CF93CDB7DEB7C954D04025
:103D30000FB6F894DEBF0FBECDBF0E94621E0E9478
:103D4000851E80E061E442E00E942F1DFE01E95BD8
:103D5000FF4F8083FE01E95BFF4F8081805D0E9401
:103D60004507FE01ED5BFF4F80E090E0AAE7B4E479
:103D700080839183A283B3838E01015C1F4FFE0178
:103D8000ED5BFF4F608171818281938120E030E0A3
:103D90004AEF54E40E941F02DC01CB01F80180834A
:103DA0009183A283B383FE01FF966081718182813A
:103DB000938120E030E040E85FE30E9479038823AC
:103DC0002CF481E090E09EAF8DAF46C0FE01FF96DF
:103DD000608171818281938120E03FEF4FE757E45A
:103DE0000E941903181664F5FE01ED5BFF4F608118
:103DF00071818281938120E030E040E251E40E94B1
:103E00001F02DC01CB01BC01CD010E944900DC0195
:103E1000CB019EAF8DAF0FC088EC90E09CAF8BAF15
:103E20008BAD9CAD0197F1F79CAF8BAF8DAD9EAD87
:103E300001979EAF8DAF8DAD9EAD009769F716C00F
:103E4000FE01FF9660817181828193810E94490009
:103E5000DC01CB019EAF8DAF8DAD9EAD9AAF89AF2A
:103E600089AD9AAD0197F1F79AAF89AF89E062E425
:103E700042E00E942F1DFE01E95BFF4F8083FE019F
:103E8000E95BFF4F8081805D0E94450780E090E004
:103E9000AAE7B4E48DAB9EABAFABB8AF6DA97EA97A
:103EA0008FA998AD20E030E04AEF54E40E941F0251
:103EB000DC01CB0189AB9AABABABBCAB69A97AA9EE
:103EC0008BA99CA920E030E040E85FE30E947903E1
:103ED00088232CF481E090E098AB8FA73FC069A9BC
:103EE0007AA98BA99CA920E03FEF4FE757E40E94F5
:103EF000190318164CF56DA97EA98FA998AD20E07D
:103F000030E040E251E40E941F02DC01CB01BC0121
:103F1000CD010E944900DC01CB0198AB8FA70FC0F7
:103F200088EC90E09EA78DA78DA59EA50197F1F73F
:103F30009EA78DA78FA598A9019798AB8FA78FA54E
:103F400098A9009769F714C069A97AA98BA99CA9B7
:103F50000E944900DC01CB0198AB8FA78FA598A9DF
:103F60009CA78BA78BA59CA50197F1F79CA78BA776
:103F70009E01285B3F4F80E0B90142E00E946A1D2C
:103F8000FE01E95BFF4F8083FE01E95BFF4F80810B
:103F9000805D0E94450780E090E0AAE7B4E48FA32B
:103FA00098A7A9A7BAA76FA178A589A59AA520E087
:103FB00030E04AEF54E40E941F02DC01CB018BA3E6
:103FC0009CA3ADA3BEA36BA17CA18DA19EA120E06B
:103FD00030E040E85FE30E94790388232CF481E01D
:103FE00090E09AA389A33FC06BA17CA18DA19EA163
:103FF00020E03FEF4FE757E40E94190318164CF5F5
:104000006FA178A589A59AA520E030E040E251E4AF
:104010000E941F02DC01CB01BC01CD010E944900BE
:10402000DC01CB019AA389A30FC088EC90E098A390
:104030008F8F8F8D98A10197F1F798A38F8F89A10A
:104040009AA101979AA389A389A19AA1009769F7D8
:1040500014C06BA17CA18DA19EA10E944900DC012E
:10406000CB019AA389A389A19AA19E8F8D8F8D8D53
:104070009E8D0197F1F79E8F8D8F9E01275B3F4F9D
:1040800089E0B90142E00E946A1DFE01E95BFF4F31
:104090008083FE01E95BFF4F8081805D0E944507C0
:1040A00080E090E0AAE7B4E4898F9A8FAB8FBC8F51
:1040B000698D7A8D8B8D9C8D20E030E04AEF54E441
:1040C0000E941F02DC01CB018D8B9E8BAF8BB88FC2
:1040D0006D897E898F89988D20E030E040E85FE32C
:1040E0000E94790388232CF481E090E09C8B8B8BD9
:1040F0003FC06D897E898F89988D20E03FEF4FE723
:1041000057E40E94190318164CF5698D7A8D8B8D32
:104110009C8D20E030E040E251E40E941F02DC016F
:10412000CB01BC01CD010E944900DC01CB019C8B7D
:104130008B8B0FC088EC90E09A8B898B89899A8948
:104140000197F1F79A8B898B8B899C8901979C8BBE
:104150008B8B8B899C89009769F714C06D897E8948
:104160008F89988D0E944900DC01CB019C8B8B8B41
:104170008B899C89988B8F878F8598890197F1F718
:10418000988B8F87FE01E85BFF4F80810E94450777
:1041900080E090E0AAE7B4E48B879C87AD87BE8778
:1041A0006B857C858D859E8520E030E04AEF54E468
:1041B0000E941F02DC01CB018F839887A987BA87F1
:1041C0006F81788589859A8520E030E040E85FE35B
:1041D0000E94790388232CF481E090E09E838D83F4
:1041E0003FC06F81788589859A8520E03FEF4FE752
:1041F00057E40E94190318164CF56B857C858D8554
:104200009E8520E030E040E251E40E941F02DC0184
:10421000CB01BC01CD010E944900DC01CB019E8392
:104220008D830FC088EC90E09C838B838B819C8175
:104230000197F1F79C838B838D819E8101979E83EB
:104240008D838D819E81009769F714C06F81788579
:1042500089859A850E944900DC01CB019E838D836C
:104260008D819E819A83898389819A810197F1F753
:104270009A838983FE01E75BFF4F80810E94450797
:10428000FFCF2F923F924F925F926F927F928F92C9
:104290009F92AF92BF92CF92DF92EF92FF920F93D5
:1042A0001F93CF93DF93CDB7DEB7CA1BDB0B0FB6DF
:1042B000F894DEBF0FBECDBF09942A88398848889C
:1042C0005F846E847D848C849B84AA84B984C88432
:1042D000DF80EE80FD800C811B81AA81B981CE0F29
:1042E000D11D0FB6F894DEBF0FBECDBFED0108950E
:0442F000F894FFCF70
:1042F4000000000000000000020A121A030000007F
:1043040000000C01000C03000100C4097D00BC0086
:04431400FA0011009A
:00000001FF
