:100000000C942A000C9447000C9447000C94470071
:100010000C9447000C9447000C9447000C94470044
:100020000C9447000C9447000C9447000C94470034
:100030000C9447000C9447000C9447000C94470024
:100040000C9447000C9447000C9447000C94470014
:100050000C94470011241FBECFE5D8E0DEBFCDBF12
:1000600012E0A0E6B0E0EEE8F7E302C005900D92E2
:10007000AE3BB107D9F712E0AEEBB2E001C01D9282
:10008000AD3FB107E1F70E942B1B0C94C51B0C94EC
:100090000000DF93CF9300D0CDB7DEB79A8389837A
:1000A000E981FA8180818823B1F4A0E4B0E0E0E442
:1000B000F0E080818D7F8C93A0E4B0E0E0E4F0E09C
:1000C00080818B7F8C93AAE2B0E0EAE2F0E080814D
:1000D0008B7F8C936BC0E981FA8180818130B1F490
:1000E000A0E4B0E0E0E4F0E0808182608C93A0E4E2
:1000F000B0E0E0E4F0E080818B7F8C93AAE2B0E096
:10010000EAE2F0E080818B7F8C9350C0E981FA8134
:1001100080818230B1F4A0E4B0E0E0E4F0E08081DE
:100120008D7F8C93A0E4B0E0E0E4F0E08081846017
:100130008C93AAE2B0E0EAE2F0E080818B7F8C93BE
:1001400035C0E981FA8180818330B1F4A0E4B0E068
:10015000E0E4F0E0808182608C93A0E4B0E0E0E431
:10016000F0E0808184608C93AAE2B0E0EAE2F0E003
:1001700080818B7F8C931AC0E981FA8180818430E1
:10018000A9F4A0E4B0E0E0E4F0E0808182608C9328
:10019000A0E4B0E0E0E4F0E0808184608C93AAE227
:1001A000B0E0EAE2F0E0808184608C93E981FA813A
:1001B0008181882379F4A0E4B0E0E0E4F0E080817C
:1001C0008F7E8C93A0E4B0E0E0E4F0E080818F7D4E
:1001D0008C9327C0E981FA818181813079F4A0E490
:1001E000B0E0E0E4F0E080818F7E8C93A0E4B0E0AA
:1001F000E0E4F0E0808180628C9313C0E981FA81B1
:100200008181823071F4A0E4B0E0E0E4F0E080812C
:1002100080618C93A0E4B0E0E0E4F0E08081806253
:100220008C93E981FA818281882341F4A0E4B0E0D3
:10023000E0E4F0E08081877F8C930CC0E981FA8153
:100240008281813039F4A0E4B0E0E0E4F0E0808124
:1002500088608C93E981FA8183818823B1F4AAE2D2
:10026000B0E0EAE2F0E080818F778C93AAE2B0E020
:10027000EAE2F0E080818F7D8C93AAE2B0E0EAE2CE
:10028000F0E080818F7B8C931AC0E981FA818381B1
:100290008130A9F4AAE2B0E0EAE2F0E0808180686F
:1002A0008C93AAE2B0E0EAE2F0E0808180628C9375
:1002B000AAE2B0E0EAE2F0E0808180648C93E98118
:1002C000FA818781813041F4A0E4B0E0E0E4F0E01D
:1002D00080818F7B8C930CC0E981FA818781882390
:1002E00039F4A0E4B0E0E0E4F0E0808180648C9335
:1002F000E981FA8180858130C1F4ABE2B0E0EBE2C4
:10030000F0E0808182608C93A9E2B0E0E981FA811B
:10031000848195818C93A0E4B0E0E981FA818481A5
:100320009581892F99278C931DC0E981FA81808559
:100330008823C1F4ABE2B0E0EBE2F0E080818D7F96
:100340008C93A9E2B0E0E981FA8186818C93A0E4E4
:10035000B0E0E981FA818681882F90E0892F990F9A
:10036000990B8C930F900F90CF91DF910895DF93AD
:10037000CF9300D0CDB7DEB79A838983AAE2B0E0ED
:10038000EAE2F0E0808180618C93AAE2B0E0EAE2E8
:10039000F0E0808188608C930F900F90CF91DF9177
:1003A0000895DF93CF9300D0CDB7DEB79A838983CA
:1003B000AAE2B0E0EAE2F0E080818F7E8C93AAE2CC
:1003C000B0E0EAE2F0E08081877F8C930F900F909D
:1003D000CF91DF910895DF93CF930F92CDB7DEB722
:1003E0008983EBE2F0E08081829586958770882F83
:1003F00090E0817090700097A1F3ECE2F0E08981C9
:1004000080830F90CF91DF910895DF93CF930F9268
:10041000CDB7DEB7EBE2F0E08081881F8827881F28
:100420008130C1F7ECE2F0E080818983ABE2B0E09B
:10043000EBE2F0E080818F778C9389810F90CF91F0
:10044000DF910895DF93CF9300D0CDB7DEB79A83C5
:1004500089830BC0E981FA81208189819A81019683
:100460009A838983822F0E94EB01E981FA8180813E
:10047000882381F70F900F90CF91DF910895DF933C
:10048000CF93CDB7DEB782E060E040E020E00E948D
:10049000CE0F82E061E040E020E00E94CE0FE0E27B
:1004A000F0E080E28083E1E2F0E01082E2E2F0E05E
:1004B00080E58083E6E5F0E084E08083CF91DF9102
:1004C0000895DF93CF93CDB7DEB7E6E5F0E084EA99
:1004D0008083E6E5F0E080818823DCF7CF91DF912F
:1004E0000895DF93CF93CDB7DEB7E6E5F0E084E97A
:1004F0008083CF91DF910895DF93CF930F92CDB793
:10050000DEB78983E3E2F0E089818083E6E5F0E00D
:1005100084EC8083E6E5F0E080818823DCF70F90AF
:10052000CF91DF910895DF93CF930F92CDB7DEB7D0
:10053000E6E5F0E080818823DCF7A6E5B0E0E6E5BB
:10054000F0E0808180648C93A6E5B0E0E6E5F0E021
:10055000808184608C93E6E5F0E080818823DCF77D
:10056000E3E2F0E08081898389810F90CF91DF9170
:100570000895DF93CF930F92CDB7DEB7E6E5F0E0B5
:1005800080818823DCF7A6E5B0E0E6E5F0E0808135
:1005900084608C93E6E5F0E080818823DCF7E3E279
:1005A000F0E08081898389810F90CF91DF91089558
:1005B000DF93CF930F92CDB7DEB7E1E2F0E0808119
:1005C000887F898389810F90CF91DF910895DF9390
:1005D000CF9300D000D0CDB7DEB79A8389838981CD
:1005E0009A81009709F488C2E981FA818081282FD5
:1005F00030E03C832B838B819C818330910509F40F
:1006000027C12B813C81243031058CF48B819C8166
:100610008130910509F470C02B813C812230310575
:100620000CF0BDC08B819C810097A1F065C22B812D
:100630003C812530310509F4BEC18B819C81853018
:1006400091050CF45FC12B813C812630310509F402
:1006500004C252C2A3E5B0E0E3E5F0E08081877B0D
:100660008C93E981FA818281813049F4A9E5B0E077
:10067000E9E5F0E080818C7F81608C933DC2E98167
:10068000FA818281882309F037C2E981FA81838166
:10069000882341F4A3E5B0E0E3E5F0E080818F7CBE
:1006A0008C932AC2E981FA818381813049F4A3E5E0
:1006B000B0E0E3E5F0E080818F7C80618C931CC228
:1006C000E981FA818381823049F4A3E5B0E0E3E572
:1006D000F0E080818F7C80628C930EC2E981FA8188
:1006E0008381833009F008C2A3E5B0E0E3E5F0E0E0
:1006F000808180638C9300C2A3E5B0E0E3E5F0E085
:100700008081877B88608C93E981FA818281813046
:1007100049F4A9E5B0E0E9E5F0E080818C7F8260F2
:100720008C93EAC1E981FA818281882309F0E4C1CE
:10073000E981FA818381882341F4A3E5B0E0E3E510
:10074000F0E080818F7C8C93D7C1E981FA8183812D
:10075000813049F4A3E5B0E0E3E5F0E080818F7CEF
:1007600080618C93C9C1E981FA818381823049F427
:10077000A3E5B0E0E3E5F0E080818F7C80628C93BC
:10078000BBC1E981FA818381833009F0B5C1A3E55A
:10079000B0E0E3E5F0E0808180638C93ADC1AFE42D
:1007A000B0E0EFE4F0E080818C7F8C93AEE4B0E0C9
:1007B000EEE4F0E08081877E8C93E981FA8182818A
:1007C000813049F4A9E5B0E0E9E5F0E08081837C7F
:1007D00084608C9391C1E981FA818281882309F038
:1007E0008BC1E981FA818381882341F4AFE4B0E0D1
:1007F000EFE4F0E080818F7C8C937EC1E981FA8107
:100800008381813049F4AFE4B0E0EFE4F0E080812F
:100810008F7C80618C9370C1E981FA818381823001
:1008200049F4AFE4B0E0EFE4F0E080818F7C8062D7
:100830008C9362C1E981FA818381833009F05CC1C4
:10084000AFE4B0E0EFE4F0E0808180638C9354C1CA
:10085000AFE4B0E0EFE4F0E080818C7F8C93AEE415
:10086000B0E0EEE4F0E08081877E88608C93E981DF
:10087000FA818281813049F4A9E5B0E0E9E5F0E050
:100880008081837C88618C9337C1E981FA81828180
:10089000882309F031C1E981FA818381882341F4F9
:1008A000AFE4B0E0EFE4F0E080818F7C8C9324C172
:1008B000E981FA818381813049F4AFE4B0E0EFE46B
:1008C000F0E080818F7C80618C9316C1E981FA8190
:1008D0008381823049F4AFE4B0E0EFE4F0E080815E
:1008E0008F7C80628C9308C1E981FA818381833097
:1008F00009F002C1AFE4B0E0EFE4F0E08081806392
:100900008C93FAC0AFE4B0E0EFE4F0E080818C7F3C
:100910008C93AEE4B0E0EEE4F0E0808188618C93EB
:10092000E981FA818281813049F4A9E5B0E0E9E505
:10093000F0E08081837C88618C93DEC0E981FA815C
:100940008281882309F0D8C0E981FA8183818823D4
:1009500041F4AFE4B0E0EFE4F0E080818F7C8C9371
:10096000CBC0E981FA818381813049F4AFE4B0E002
:10097000EFE4F0E080818F7C80618C93BDC0E981E1
:10098000FA818381823049F4AFE4B0E0EFE4F0E033
:1009900080818F7C80628C93AFC0E981FA818381F2
:1009A000833009F0A9C0AFE4B0E0EFE4F0E080816B
:1009B00080638C93A1C0A5E4B0E0E5E4F0E0808121
:1009C000877B8C93E981FA818281813049F4A9E5A2
:1009D000B0E0E9E5F0E080818F7380648C938CC097
:1009E000E981FA818281882309F086C0E981FA8150
:1009F0008381882341F4A5E4B0E0E5E4F0E0808160
:100A00008F7C8C9379C0E981FA818381813049F4AC
:100A1000A5E4B0E0E5E4F0E080818F7C80618C9318
:100A20006BC0E981FA818381823049F4A5E4B0E0AA
:100A3000E5E4F0E080818F7C80628C935DC0E98189
:100A4000FA818381833009F057C0A5E4B0E0E5E482
:100A5000F0E0808180638C934FC0A5E4B0E0E5E4D2
:100A6000F0E08081877B8C93E981FA8182818130FB
:100A700049F4A9E5B0E0E9E5F0E080818F73806892
:100A80008C933AC0E981FA8182818823A9F5E981B2
:100A9000FA818381882341F4A5E4B0E0E5E4F0E045
:100AA00080818F7C8C9328C0E981FA818381813099
:100AB00049F4A5E4B0E0E5E4F0E080818F7C80615A
:100AC0008C931AC0E981FA818381823049F4A5E4CC
:100AD000B0E0E5E4F0E080818F7C80628C930CC014
:100AE000E981FA818381833039F4A5E4B0E0E5E45B
:100AF000F0E0808180638C930F900F900F900F90A7
:100B0000CF91DF910895DF93CF93CDB7DEB72A97CA
:100B10000FB6F894DEBF0FBECDBF9A83898389815B
:100B20009A81009709F498C1E981FA818081282F80
:100B300030E03A87298789859A858530910564F464
:100B400029853A85223031050CF08BC089859A853C
:100B500099230CF481C107C029853A8527303105D6
:100B60000CF07AC1FCC0E981FA818181282F30E044
:100B700038872F838F8198858330910509F445C08C
:100B80002F813885243031057CF48F819885813020
:100B9000910549F12F813885223031056CF58F811F
:100BA00098850097C1F058C12F81388525303105CF
:100BB00009F43DC08F819885853091057CF12F81A6
:100BC000388526303105E1F18F8198858730910590
:100BD00009F43FC041C1A3E5B0E0E3E5F0E0808166
:100BE000887F8C9339C1A3E5B0E0E3E5F0E0808134
:100BF000887F81608C9330C1A3E5B0E0E3E5F0E04D
:100C00008081887F82608C9327C1A3E5B0E0E3E513
:100C1000F0E08081887F83608C931EC1A3E5B0E003
:100C2000E3E5F0E08081887F84608C9315C1A3E5C3
:100C3000B0E0E3E5F0E08081887F85608C930CC1B3
:100C4000A3E5B0E0E3E5F0E08081887F86608C93E7
:100C500003C1A3E5B0E0E3E5F0E0808187608C9319
:100C6000FBC0E981FA818181282F30E03E832D830A
:100C70008D819E818330910509F445C02D813E818F
:100C8000243031057CF48D819E818130910549F1BC
:100C90002D813E81223031056CF58D819E8100973A
:100CA000C1F0DAC02D813E812530310509F43DC007
:100CB0008D819E81853091057CF12D813E8126308C
:100CC0003105E1F18D819E818730910509F43FC0A6
:100CD000C3C0AEE4B0E0EEE4F0E08081887F8C93A6
:100CE000BBC0AEE4B0E0EEE4F0E08081887F8160DC
:100CF0008C93B2C0AEE4B0E0EEE4F0E08081887F97
:100D000082608C93A9C0AEE4B0E0EEE4F0E08081B4
:100D1000887F83608C93A0C0AEE4B0E0EEE4F0E0A6
:100D20008081887F84608C9397C0AEE4B0E0EEE46D
:100D3000F0E08081887F85608C938EC0AEE4B0E067
:100D4000EEE4F0E08081887F86608C9385C0AEE41D
:100D5000B0E0EEE4F0E0808187608C937DC0E981B3
:100D6000FA818181282F30E03C832B838B819C8109
:100D70008330910509F44EC02B813C81243031052C
:100D80007CF48B819C818130910549F12B813C81E0
:100D9000223031056CF58B819C810097C1F05CC0DD
:100DA0002B813C812530310509F44FC08B819C811A
:100DB000853091050CF440C02B813C8128303105F1
:100DC00001F18B819C818930910569F145C0A5E4D1
:100DD000B0E0E5E4F0E08081887F8C933DC0A5E43D
:100DE000B0E0E5E4F0E08081887F81608C9334C0DE
:100DF000A5E4B0E0E5E4F0E08081887F82608C9338
:100E00002BC0A5E4B0E0E5E4F0E08081887F83605A
:100E10008C9322C0A5E4B0E0E5E4F0E08081887F17
:100E200084608C9319C0A5E4B0E0E5E4F0E0808133
:100E3000887F85608C9310C0A5E4B0E0E5E4F0E025
:100E40008081887F86608C9307C0A5E4B0E0E5E4EC
:100E5000F0E0808187608C932A960FB6F894DEBF0D
:100E60000FBECDBFCF91DF910895DF93CF9300D018
:100E700000D0CDB7DEB79A83898389819A810097A4
:100E800099F1E981FA818081282F30E03C832B831E
:100E90008B819C818530910554F42B813C812230DB
:100EA00031059CF48B819C819923F4F006C02B8141
:100EB0003C8127303105C4F410C0A3E5B0E0E3E580
:100EC000F0E08081887F8C930FC0AEE4B0E0EEE468
:100ED000F0E08081887F8C9307C0A5E4B0E0E5E472
:100EE000F0E08081887F8C930F900F900F900F908F
:100EF000CF91DF910895DF93CF9300D000D0CDB78D
:100F0000DEB79A8389837C836B8389819A8100977A
:100F100079F0E981FA818081882F90E0029783300F
:100F2000910530F4E6E4F0E08B819C81918380832D
:100F30000F900F900F900F90CF91DF910895DF9356
:100F4000CF9300D000D000D0CDB7DEB79A8389838D
:100F50007C836B8389819A81009761F1E981FA81B1
:100F60008081282F30E03E832D838D819E818530C6
:100F7000910554F42D813E812230310584F48D8118
:100F80009E819923BCF006C02D813E81273031051A
:100F90008CF40CC0ECE5F0E08B8180830BC0EAE4BC
:100FA000F0E08B819C819183808304C0E3E4F0E0D6
:100FB0008B81808326960FB6F894DEBF0FBECDBF1F
:100FC000CF91DF910895DF93CF9300D000D0CDB7BC
:100FD000DEB79A83898389819A81009709F42DC4A9
:100FE000E981FA818081282F30E03C832B838B813B
:100FF0009C818730910509F404C22B813C81283003
:10100000310554F58B819C818330910509F400C131
:101010002B813C812430310594F48B819C8181307B
:10102000910509F481C02B813C81223031050CF0FF
:10103000B1C08B819C81009709F43FC0FEC32B8116
:101040003C812530310509F45EC18B819C8186305D
:1010500091050CF097C11AC12B813C812B303105D1
:1010600009F4C9C28B819C818C3091056CF42B8171
:101070003C812930310509F440C28B819C818A3042
:1010800091050CF079C2FBC12B813C812D303105DB
:1010900009F42DC38B819C818D3091050CF4E9C23C
:1010A0002B813C812E30310509F45EC38B819C81FC
:1010B0008F30910509F48EC3C0C3A3E5B0E0E3E52A
:1010C000F0E08081877B80648C93E981FA81828162
:1010D000813041F4A9E5B0E0E9E5F0E0808183608A
:1010E0008C93ABC3E981FA818281882309F0A5C37F
:1010F000E981FA818381813049F4A3E5B0E0E3E539
:10110000F0E080818F7C80628C9397C3E981FA81C3
:101110008381882309F091C3A3E5B0E0E3E5F0E023
:10112000808180638C9389C3A3E5B0E0E3E5F0E0C0
:10113000808188648C93E981FA818281813041F4D5
:10114000A9E5B0E0E9E5F0E0808183608C9375C3A8
:10115000E981FA818281882309F06FC3E981FA81EC
:101160008381813049F4A3E5B0E0E3E5F0E08081DC
:101170008F7C80628C9361C3E981FA8183818823AB
:1011800009F05BC3A3E5B0E0E3E5F0E080818063B4
:101190008C9353C3AFE4B0E0EFE4F0E080818C7F48
:1011A00081608C93AEE4B0E0EEE4F0E08081877E75
:1011B0008C93E981FA818281813041F4A9E5B0E024
:1011C000E9E5F0E080818C638C9337C3E981FA8193
:1011D0008281882309F031C3E981FA8183818130DA
:1011E00049F4AFE4B0E0EFE4F0E080818F7C80620E
:1011F0008C9323C3E981FA818381882309F01DC37D
:10120000AFE4B0E0EFE4F0E0808180638C9315C33D
:10121000AFE4B0E0EFE4F0E080818C7F82608C93FB
:10122000AEE4B0E0EEE4F0E08081877E8C93E9816B
:10123000FA818281813041F4A9E5B0E0E9E5F0E08E
:1012400080818C638C93F9C2E981FA818281882341
:1012500009F0F3C2E981FA818381813049F4AFE476
:10126000B0E0EFE4F0E080818F7C80628C93E5C297
:10127000E981FA818381882309F0DFC2AFE4B0E01D
:10128000EFE4F0E0808180638C93D7C2AFE4B0E0FC
:10129000EFE4F0E0808183608C93AEE4B0E0EEE4B4
:1012A000F0E08081877E8C93E981FA8182818130B0
:1012B00041F4A9E5B0E0E9E5F0E080818C638C932E
:1012C000BCC2E981FA818281882309F0B6C2E98132
:1012D000FA818381813049F4AFE4B0E0EFE4F0E0DB
:1012E00080818F7C80628C93A8C2E981FA8183819E
:1012F000882309F0A2C2AFE4B0E0EFE4F0E080811F
:1013000080638C939AC2AFE4B0E0EFE4F0E08081B8
:101310008C7F81608C93AEE4B0E0EEE4F0E08081FD
:10132000877E88608C93E981FA818281813041F4E3
:10133000A9E5B0E0E9E5F0E080818C638C937DC2A3
:10134000E981FA818281882309F077C2E981FA81F3
:101350008381813049F4AFE4B0E0EFE4F0E08081D4
:101360008F7C80628C9369C2E981FA8183818823B2
:1013700009F063C2AFE4B0E0EFE4F0E080818063A5
:101380008C935BC2AFE4B0E0EFE4F0E080818C7F4F
:1013900082608C93AEE4B0E0EEE4F0E08081877E82
:1013A00088608C93E981FA818281813041F4A9E5DA
:1013B000B0E0E9E5F0E080818C638C933EC2E98186
:1013C000FA818281882309F038C2E981FA81838118
:1013D000813049F4AFE4B0E0EFE4F0E080818F7C4D
:1013E00080628C932AC2E981FA818381882309F083
:1013F00024C2AFE4B0E0EFE4F0E0808180638C933E
:101400001CC2AFE4B0E0EFE4F0E0808183608C9335
:10141000AEE4B0E0EEE4F0E08081877E88608C93FB
:10142000E981FA818281813041F4A9E5B0E0E9E502
:10143000F0E080818C638C9300C2E981FA81828123
:10144000882309F0FAC1E981FA818381813049F466
:10145000AFE4B0E0EFE4F0E080818F7C80628C93B9
:10146000ECC1E981FA818381882309F0E6C1AFE408
:10147000B0E0EFE4F0E0808180638C93DEC1AFE404
:10148000B0E0EFE4F0E080818C7F8C93AEE4B0E0DC
:10149000EEE4F0E08081877E80618C93E981FA81BF
:1014A0008281813041F4A9E5B0E0E9E5F0E0808196
:1014B0008C638C93C2C1E981FA818281882309F00F
:1014C000BCC1E981FA818381813049F4AFE4B0E0A5
:1014D000EFE4F0E080818F7C80628C93AEC1E98183
:1014E000FA818381882309F0A8C1AFE4B0E0EFE47A
:1014F000F0E0808180638C93A0C1AFE4B0E0EFE4C2
:10150000F0E080818C7F81608C93AEE4B0E0EEE40B
:10151000F0E08081877E80618C93E981FA8182810D
:10152000813041F4A9E5B0E0E9E5F0E080818C6329
:101530008C9383C1E981FA818281882309F07DC17E
:10154000E981FA818381813049F4AFE4B0E0EFE4CE
:10155000F0E080818F7C80628C936FC1E981FA8199
:101560008381882309F069C1AFE4B0E0EFE4F0E0E3
:10157000808180638C9361C1AFE4B0E0EFE4F0E080
:1015800080818C7F82608C93AEE4B0E0EEE4F0E08A
:101590008081877E80618C93E981FA8182818130AC
:1015A00041F4A9E5B0E0E9E5F0E080818C638C933B
:1015B00044C1E981FA818281882309F03EC1E98131
:1015C000FA818381813049F4AFE4B0E0EFE4F0E0E8
:1015D00080818F7C80628C9330C1E981FA81838124
:1015E000882309F02AC1AFE4B0E0EFE4F0E08081A5
:1015F00080638C9322C1AFE4B0E0EFE4F0E080813F
:1016000083608C93AEE4B0E0EEE4F0E08081877E0E
:1016100080618C93E981FA818281813041F4A9E56E
:10162000B0E0E9E5F0E080818C638C9306C1E9814C
:10163000FA818281882309F000C1E981FA818381DE
:10164000813049F4AFE4B0E0EFE4F0E080818F7CDA
:1016500080628C93F2C0E981FA818381882309F04A
:10166000ECC0AFE4B0E0EFE4F0E0808180638C9305
:10167000E4C0AFE4B0E0EFE4F0E080818C7F826012
:101680008C93AEE4B0E0EEE4F0E0808188618C936E
:10169000E981FA818281813041F4A9E5B0E0E9E590
:1016A000F0E080818C638C93C8C0E981FA818281EB
:1016B000882309F0C2C0E981FA818381813049F42D
:1016C000AFE4B0E0EFE4F0E080818F7C80628C9347
:1016D000B4C0E981FA818381882309F0AEC0AFE408
:1016E000B0E0EFE4F0E0808180638C93A6C0AFE4CB
:1016F000B0E0EFE4F0E0808183608C93AEE4B0E092
:10170000EEE4F0E0808188618C93E981FA81828146
:10171000813041F4A9E5B0E0E9E5F0E080818C6337
:101720008C938BC0E981FA818281882309F085C07E
:10173000E981FA818381813049F4AFE4B0E0EFE4DC
:10174000F0E080818F7C80628C9377C0E981FA81A0
:101750008381882309F071C0AFE4B0E0EFE4F0E0EA
:10176000808180638C9369C0A5E4B0E0E5E4F0E09B
:101770008081877B80648C93E981FA8182818130CA
:1017800041F4A9E5B0E0E9E5F0E08081806C8C935C
:1017900054C0E981FA818281882309F04EC0E98131
:1017A000FA818381813049F4A5E4B0E0EFE4F0E010
:1017B00080818F7C80628C9340C0E981FA81838133
:1017C0008823D9F5A5E4B0E0EFE4F0E08081806300
:1017D0008C9333C0A5E4B0E0E5E4F0E08081886458
:1017E0008C93E981FA818281813041F4A9E5B0E0EE
:1017F000E9E5F0E08081806C8C931FC0E981FA817B
:1018000082818823D1F4E981FA818381813049F48E
:10181000A5E4B0E0EFE4F0E080818F7C80628C93FF
:101820000CC0E981FA818381882339F4A5E4B0E012
:10183000EFE4F0E0808180638C930F900F900F9025
:101840000F90CF91DF910895DF93CF9300D000D018
:10185000CDB7DEB79A8389837C836B8389819A8134
:10186000009779F0E981FA818081882F90E00297D2
:101870008C30910530F4E6E4F0E08B819C8191831B
:1018800080830F900F900F900F90CF91DF9108956C
:10189000DF93CF9300D000D000D0CDB7DEB79A83CE
:1018A00089837C836B8389819A81009761F1E981C7
:1018B000FA818081282F30E03E832D838D819E81A7
:1018C0008E30910554F42D813E812230310584F40F
:1018D0008D819E819923BCF006C02D813E812031EF
:1018E00031058CF40CC0ECE5F0E08B8180830BC0FB
:1018F000EAE4F0E08B819C819183808304C0E3E47F
:10190000F0E08B81808326960FB6F894DEBF0FBE81
:10191000CDBFCF91DF910895DF93CF93CDB7DEB7E1
:101920002A970FB6F894DEBF0FBECDBF9A83898386
:1019300089819A81009709F498C1E981FA818081AF
:10194000282F30E03A87298789859A858E3091053E
:1019500064F429853A85223031050CF08BC08985E5
:101960009A8599230CF481C107C029853A852031D5
:1019700031050CF07AC1FCC0E981FA818181282F00
:1019800030E038872F838F8198858330910509F463
:1019900045C02F813885243031057CF48F819885AE
:1019A0008130910549F12F813885223031056CF560
:1019B0008F8198850097C1F058C12F8138852530D7
:1019C000310509F43DC08F819885853091057CF102
:1019D0002F81388526303105E1F18F819885873058
:1019E000910509F43FC041C1A3E5B0E0E3E5F0E0B3
:1019F0008081887F8C9339C1A3E5B0E0E3E5F0E016
:101A00008081887F81608C9330C1A3E5B0E0E3E5FD
:101A1000F0E08081887F82608C9327C1A3E5B0E0ED
:101A2000E3E5F0E08081887F83608C931EC1A3E5AD
:101A3000B0E0E3E5F0E08081887F84608C9315C19D
:101A4000A3E5B0E0E3E5F0E08081887F85608C93DA
:101A50000CC1A3E5B0E0E3E5F0E08081887F86601B
:101A60008C9303C1A3E5B0E0E3E5F0E080818760FB
:101A70008C93FBC0E981FA818181282F30E03E837D
:101A80002D838D819E818330910509F445C02D8180
:101A90003E81243031057CF48D819E818130910519
:101AA00049F12D813E81223031056CF58D819E8179
:101AB0000097C1F0DAC02D813E812530310509F44F
:101AC0003DC08D819E81853091057CF12D813E81C7
:101AD00026303105E1F18D819E818730910509F431
:101AE0003FC0C3C0AEE4B0E0EEE4F0E08081887FA8
:101AF0008C93BBC0AEE4B0E0EEE4F0E08081887F80
:101B000081608C93B2C0AEE4B0E0EEE4F0E080819E
:101B1000887F82608C93A9C0AEE4B0E0EEE4F0E090
:101B20008081887F83608C93A0C0AEE4B0E0EEE457
:101B3000F0E08081887F84608C9397C0AEE4B0E051
:101B4000EEE4F0E08081887F85608C938EC0AEE407
:101B5000B0E0EEE4F0E08081887F86608C9385C001
:101B6000AEE4B0E0EEE4F0E0808187608C937DC06D
:101B7000E981FA818181282F30E03C832B838B819E
:101B80009C818330910509F44EC02B813C81243027
:101B900031057CF48B819C818130910549F12B8149
:101BA0003C81223031056CF58B819C810097C1F01E
:101BB0005CC02B813C812530310509F44FC08B81FD
:101BC0009C81853091050CF440C02B813C812830EC
:101BD000310501F18B819C818930910569F145C006
:101BE000A5E4B0E0E5E4F0E08081887F8C933DC01F
:101BF000A5E4B0E0E5E4F0E08081887F81608C932B
:101C000034C0A5E4B0E0E5E4F0E08081887F826044
:101C10008C932BC0A5E4B0E0E5E4F0E08081887F00
:101C200083608C9322C0A5E4B0E0E5E4F0E080811D
:101C3000887F84608C9319C0A5E4B0E0E5E4F0E00F
:101C40008081887F85608C9310C0A5E4B0E0E5E4D6
:101C5000F0E08081887F86608C9307C0A5E4B0E0C7
:101C6000E5E4F0E0808187608C932A960FB6F894C3
:101C7000DEBF0FBECDBFCF91DF910895DF93CF932D
:101C800000D000D0CDB7DEB79A83898389819A814D
:101C9000009799F1E981FA818081282F30E03C8317
:101CA0002B838B819C818E30910554F42B813C8158
:101CB000223031059CF48B819C819923F4F006C07D
:101CC0002B813C8120313105C4F410C0A3E5B0E084
:101CD000E3E5F0E08081887F8C930FC0AEE4B0E054
:101CE000EEE4F0E08081887F8C9307C0A5E4B0E04B
:101CF000E5E4F0E08081887F8C930F900F900F9047
:101D00000F90CF91DF910895DF93CF93CDB7DEB7DA
:101D1000AFE5B0E0EFE5F0E0808180688C93CF9193
:101D2000DF910895DF93CF93CDB7DEB7AFE5B0E095
:101D3000EFE5F0E080818F778C93CF91DF9108956C
:101D4000DF93CF9300D000D0CDB7DEB79A838983DD
:101D5000E981FA818081282F30E03C832B838B81BD
:101D60009C818130910509F45EC02B813C81223039
:101D7000310509F4AAC08B819C81009709F0CCC081
:101D8000E981FA818181882379F4A5E5B0E0E5E570
:101D9000F0E080818C7F8C93ABE5B0E0EBE5F0E088
:101DA000808180648C93B8C0E981FA81818181301F
:101DB00081F4A5E5B0E0E5E5F0E080818C7F81600D
:101DC0008C93ABE5B0E0EBE5F0E0808180648C9330
:101DD000A3C0E981FA818181823081F4A5E5B0E078
:101DE000E5E5F0E080818C7F82608C93ABE5B0E02C
:101DF000EBE5F0E0808180648C938EC0E981FA810C
:101E00008181833009F088C0A5E5B0E0E5E5F0E028
:101E1000808183608C93ABE5B0E0EBE5F0E08081FE
:101E200080648C9379C0E981FA818181882379F477
:101E3000A5E5B0E0E5E5F0E08081837F8C93ABE53C
:101E4000B0E0EBE5F0E0808180688C9365C0E981CB
:101E5000FA818181813081F4A5E5B0E0E5E5F0E02B
:101E60008081837F84608C93ABE5B0E0EBE5F0E0AC
:101E7000808180688C9350C0E981FA8181818230B1
:101E800081F4A5E5B0E0E5E5F0E08081837F88603E
:101E90008C93ABE5B0E0EBE5F0E0808180688C935B
:101EA0003BC0E981FA8181818330B1F5A5E5B0E0DD
:101EB000E5E5F0E080818C608C93ABE5B0E0EBE58C
:101EC000F0E0808180688C9327C0E981FA8181816C
:101ED000823079F4A4E5B0E0E4E5F0E080818F7B26
:101EE0008C93ABE5B0E0EBE5F0E0808180628C9311
:101EF00013C0E981FA818181833071F4A4E5B0E0F7
:101F0000E4E5F0E0808180648C93ABE5B0E0EBE544
:101F1000F0E0808180628C930F900F900F900F9073
:101F2000CF91DF910895DF93CF9300D000D0CDB74C
:101F3000DEB79A838983E981FA818081282F30E096
:101F40003C832B838B819C818130910589F02B818F
:101F50003C8122303105A1F08B819C810097B9F43E
:101F6000ABE5B0E0EBE5F0E080818F7B8C930FC0B8
:101F7000ABE5B0E0EBE5F0E080818F778C9307C0B4
:101F8000ABE5B0E0EBE5F0E080818F7D8C930F90C6
:101F90000F900F900F90CF91DF910895DF93CF9323
:101FA00000D000D0CDB7DEB789836A834B832C8302
:101FB00089816A814B810E94E90F89816A814C8104
:101FC0000E94E9100F900F900F900F90CF91DF912A
:101FD0000895DF93CF93CDB7DEB727970FB6F89468
:101FE000DEBF0FBECDBF89836A834B838B81813077
:101FF00009F06FC08981282F30E03F832E838E81C6
:102000009F818130910549F12E813F812230310538
:102010002CF48E819F81009761F0D2C02E813F8188
:102020002230310571F18E819F8183309105E9F174
:10203000C7C0AAE3B0E0EAE3F0E08081482F8A81DC
:10204000282F30E081E090E0022E02C0880F991F17
:102050000A94E2F7842B8C93B3C0A7E3B0E0E7E3E4
:10206000F0E08081482F8A81282F30E081E090E0E5
:10207000022E02C0880F991F0A94E2F7842B8C93DA
:102080009FC0A4E3B0E0E4E3F0E08081482F8A81C0
:10209000282F30E081E090E0022E02C0880F991FC7
:1020A0000A94E2F7842B8C938BC0A1E3B0E0E1E3C8
:1020B000F0E08081482F8A81282F30E081E090E095
:1020C000022E02C0880F991F0A94E2F7842B8C938A
:1020D00077C08B81882309F073C08981282F30E075
:1020E0003D832C838C819D818130910559F12C8118
:1020F0003D81223031052CF48C819D81009769F05F
:102100005FC02C813D812230310589F18C819D8118
:102110008330910509F440C053C0AAE3B0E0EAE37C
:10212000F0E08081482F8A81282F30E081E090E024
:10213000022E02C0880F991F0A94E2F7809584232B
:102140008C933EC0A7E3B0E0E7E3F0E08081482F46
:102150008A81282F30E081E090E0022E02C0880FB3
:10216000991F0A94E2F7809584238C9329C0A4E3F5
:10217000B0E0E4E3F0E08081482F8A81282F30E04E
:1021800081E090E0022E02C0880F991F0A94E2F7C6
:10219000809584238C9314C0A1E3B0E0E1E3F0E0E8
:1021A0008081482F8A81282F30E081E090E0022E44
:1021B00002C0880F991F0A94E2F7809584238C93BC
:1021C00027960FB6F894DEBF0FBECDBFCF91DF913B
:1021D0000895DF93CF93CDB7DEB727970FB6F89466
:1021E000DEBF0FBECDBF89836A834B838B81813075
:1021F00009F06FC08981282F30E03F832E838E81C4
:102200009F818130910549F12E813F812230310536
:102210002CF48E819F81009761F0D2C02E813F8186
:102220002230310571F18E819F8183309105E9F172
:10223000C7C0ABE3B0E0EBE3F0E08081482F8A81D8
:10224000282F30E081E090E0022E02C0880F991F15
:102250000A94E2F7842B8C93B3C0A8E3B0E0E8E3E0
:10226000F0E08081482F8A81282F30E081E090E0E3
:10227000022E02C0880F991F0A94E2F7842B8C93D8
:102280009FC0A5E3B0E0E5E3F0E08081482F8A81BC
:10229000282F30E081E090E0022E02C0880F991FC5
:1022A0000A94E2F7842B8C938BC0A2E3B0E0E2E3C4
:1022B000F0E08081482F8A81282F30E081E090E093
:1022C000022E02C0880F991F0A94E2F7842B8C9388
:1022D00077C08B81882309F073C08981282F30E073
:1022E0003D832C838C819D818130910559F12C8116
:1022F0003D81223031052CF48C819D81009769F05D
:102300005FC02C813D812230310589F18C819D8116
:102310008330910509F440C053C0ABE3B0E0EBE378
:10232000F0E08081482F8A81282F30E081E090E022
:10233000022E02C0880F991F0A94E2F78095842329
:102340008C933EC0A8E3B0E0E8E3F0E08081482F42
:102350008A81282F30E081E090E0022E02C0880FB1
:10236000991F0A94E2F7809584238C9329C0A5E3F2
:10237000B0E0E5E3F0E08081482F8A81282F30E04B
:1023800081E090E0022E02C0880F991F0A94E2F7C4
:10239000809584238C9314C0A2E3B0E0E2E3F0E0E4
:1023A0008081482F8A81282F30E081E090E0022E42
:1023B00002C0880F991F0A94E2F7809584238C93BA
:1023C00027960FB6F894DEBF0FBECDBFCF91DF9139
:1023D0000895DF93CF9300D000D00F92CDB7DEB732
:1023E0008A836B8319828A81282F30E03D832C8376
:1023F0004C815D814130510541F18C819D8182305C
:10240000910534F42C813D812115310561F052C0D4
:102410004C815D814230510551F18C819D81833029
:102420009105B9F147C0E9E3F0E08081282F30E061
:102430008B81882F90E0A90102C0559547958A9518
:10244000E2F7CA018170898335C0E6E3F0E080815C
:10245000282F30E08B81882F90E0A90102C055958C
:1024600047958A95E2F7CA018170898323C0E3E327
:10247000F0E08081282F30E08B81882F90E0A90147
:1024800002C0559547958A95E2F7CA018170898304
:1024900011C0E0E3F0E08081282F30E08B81882FAD
:1024A00090E0A90102C0559547958A95E2F7CA01C7
:1024B0008170898389810F900F900F900F900F90FA
:1024C000CF91DF910895DF93CF9300D000D0CDB7A7
:1024D000DEB789836A838981282F30E03C832B8390
:1024E0008B819C818130910549F12B813C81223087
:1024F00031052CF48B819C81009761F05AC02B81AF
:102500003C812230310571F18B819C8183309105B2
:10251000E9F14FC0ABE3B0E0EBE3F0E08081482F9E
:102520008A81282F30E081E090E0022E02C0880FDF
:10253000991F0A94E2F784278C933BC0A8E3B0E08C
:10254000E8E3F0E08081482F8A81282F30E081E0A5
:1025500090E0022E02C0880F991F0A94E2F78427A8
:102560008C9327C0A5E3B0E0E5E3F0E08081482F3D
:102570008A81282F30E081E090E0022E02C0880F8F
:10258000991F0A94E2F784278C9313C0A2E3B0E06A
:10259000E2E3F0E08081482F8A81282F30E081E05B
:1025A00090E0022E02C0880F991F0A94E2F7842758
:1025B0008C930F900F900F900F90CF91DF91089513
:1025C000DF93CF9300D000D000D0CDB7DEB78983A2
:1025D0006A838A81813099F58981282F30E03E8392
:1025E0002D838D819E8181309105D1F02D813E8199
:1025F000223031052CF48D819E81009761F050C00E
:102600002D813E812230310581F08D819E81833084
:10261000910581F045C0EAE3F0E08FEF808340C090
:10262000E7E3F0E08FEF80833BC0E4E3F0E08FEF7F
:10263000808336C0E1E3F0E08FEF808331C08A8190
:10264000882371F58981282F30E03C832B838B818F
:102650009C8181309105C9F02B813C81223031056C
:102660002CF48B819C81009761F01AC02B813C81F6
:102670002230310571F08B819C818330910569F0A6
:102680000FC0EAE3F0E010820BC0E7E3F0E0108255
:1026900007C0E4E3F0E0108203C0E1E3F0E0108261
:1026A00026960FB6F894DEBF0FBECDBFCF91DF9157
:1026B0000895DF93CF93CDB7DEB728970FB6F89480
:1026C000DEBF0FBECDBF89836A838981282F30E0AA
:1026D00038872F838F81988581309105E9F02F818C
:1026E0003885223031052CF48F819885009761F070
:1026F0002AC02F81388522303105B1F08F8198852D
:1027000083309105C9F01FC0EBE3F0E09081EBE36B
:10271000F0E08A81808317C0E8E3F0E02081E8E3FD
:10272000F0E08A8180830FC0E5E3F0E03081E5E3EB
:10273000F0E08A81808307C0E2E3F0E08081E2E399
:10274000F0E08A81808328960FB6F894DEBF0FBE32
:10275000CDBFCF91DF910895DF93CF9300D000D00C
:10276000CDB7DEB78A8319828A81282F30E03C8377
:102770002B838B819C8181309105D1F02B813C8111
:10278000223031052CF48B819C81009761F01EC0B2
:102790002B813C812230310581F08B819C818330FB
:1027A000910581F013C0E9E3F0E0808189830EC0D8
:1027B000E6E3F0E08081898309C0E3E3F0E0808113
:1027C000898304C0E0E3F0E08081898389810F90F0
:1027D0000F900F900F90CF91DF910895DF93CF93DB
:1027E00000D000D000D0CDB7DEB789836A838A815C
:1027F000813009F03FC08981282F30E03E832D834E
:102800008D819E8181309105E9F02D813E812230BC
:1028100031052CF48D819E81009761F06DC02D8172
:102820003E8122303105B1F08D819E81833091054A
:10283000C9F062C0AAE3B0E0EAE3F0E080818F6013
:102840008C935AC0A7E3B0E0E7E3F0E080818F60AB
:102850008C9352C0A4E3B0E0E4E3F0E080818F60A9
:102860008C934AC0A1E3B0E0E1E3F0E080818F60A7
:102870008C9342C08A81882309F03EC08981282F29
:1028800030E03C832B838B819C8181309105E9F082
:102890002B813C81223031052CF48B819C81009767
:1028A00061F02AC02B813C8122303105B1F08B814F
:1028B0009C8183309105C9F01FC0AAE3B0E0EAE330
:1028C000F0E08081807F8C9317C0A7E3B0E0E7E35E
:1028D000F0E08081807F8C930FC0A4E3B0E0E4E35C
:1028E000F0E08081807F8C9307C0A1E3B0E0E1E35A
:1028F000F0E08081807F8C9326960FB6F894DEBF3F
:102900000FBECDBFCF91DF910895DF93CF9300D05D
:1029100000D000D0CDB7DEB789836A838A81813049
:1029200009F03FC08981282F30E03E832D838D81BF
:102930009E8181309105E9F02D813E812230310563
:102940002CF48D819E81009761F06DC02D813E81B8
:1029500022303105B1F08D819E8183309105C9F01F
:1029600062C0AAE3B0E0EAE3F0E08081806F8C937C
:102970005AC0A7E3B0E0E7E3F0E08081806F8C937A
:1029800052C0A4E3B0E0E4E3F0E08081806F8C9378
:102990004AC0A1E3B0E0E1E3F0E08081806F8C9376
:1029A00042C08A81882309F03EC08981282F30E007
:1029B0003C832B838B819C8181309105E9F02B81B5
:1029C0003C81223031052CF48B819C81009761F091
:1029D0002AC02B813C8122303105B1F08B819C8152
:1029E00083309105C9F01FC0AAE3B0E0EAE3F0E04C
:1029F00080818F708C9317C0A7E3B0E0E7E3F0E02D
:102A000080818F708C930FC0A4E3B0E0E4E3F0E02A
:102A100080818F708C9307C0A1E3B0E0E1E3F0E028
:102A200080818F708C9326960FB6F894DEBF0FBE10
:102A3000CDBFCF91DF910895DF93CF9300D000D029
:102A4000CDB7DEB789836A838981282F30E03C8344
:102A50002B838B819C818130910509F12B813C81F5
:102A6000223031052CF48B819C81009761F03AC0B3
:102A70002B813C8122303105F1F08B819C818330A8
:102A8000910529F12FC0ABE3B0E0EBE3F0E08081EA
:102A9000982F907F8A818F70892B8C9323C0A8E315
:102AA000B0E0E8E3F0E08081982F907F8A818F701A
:102AB000892B8C9317C0A5E3B0E0E5E3F0E08081BB
:102AC000982F907F8A818F70892B8C930BC0A2E303
:102AD000B0E0E2E3F0E08081982F907F8A818F70F0
:102AE000892B8C930F900F900F900F90CF91DF91C7
:102AF0000895DF93CF9300D000D0CDB7DEB78983A0
:102B00006A838981282F30E03C832B838B819C81D1
:102B10008130910509F12B813C81223031052CF463
:102B20008B819C81009761F03AC02B813C812230DF
:102B30003105F1F08B819C818330910529F12FC003
:102B4000ABE3B0E0EBE3F0E08081982F9F708A81E7
:102B5000807F892B8C9323C0A8E3B0E0E8E3F0E00A
:102B60008081982F9F708A81807F892B8C9317C0DA
:102B7000A5E3B0E0E5E3F0E08081982F9F708A81C3
:102B8000807F892B8C930BC0A2E3B0E0E2E3F0E0FE
:102B90008081982F9F708A81807F892B8C930F90E2
:102BA0000F900F900F90CF91DF910895DF93CF9307
:102BB00000D0CDB7DEB79A83898389819A81009747
:102BC00041F189819A810E94E307E981FA8180813C
:102BD000883051F0E981FA8180818A3029F0E981D9
:102BE000FA8180818C3049F489819A81E981FA8166
:102BF00025813681B9010E94240CE981FA81248162
:102C000089819A81622F0E940E1689819A810E9481
:102C10008C0C0F900F90CF91DF910895DF93CF939D
:102C200000D000D00F92CDB7DEB79A8389836B8333
:102C30008B81282F30E03D832C838C819D818130D6
:102C4000910599F02C813D8122303105C1F08C81B4
:102C50009D810097E9F489819A81E981FA81278130
:102C60003085B9010E94480C13C089819A81E9819D
:102C7000FA8121853285B9010E94480C09C08981F9
:102C80009A81E981FA8123853485B9010E94480C33
:102C90000F900F900F900F900F90CF91DF910895AC
:102CA000DF93CF9300D0CDB7DEB79A838983898134
:102CB0009A810E948C0C0F900F90CF91DF91089514
:102CC000DF93CF9300D0CDB7DEB79A838983898114
:102CD0009A810E943E0E0F900F90CF91DF91089540
:102CE000DF93CF9300D00F92CDB7DEB79B838A835B
:102CF00019828A819B810097B9F1EA81FB818081E9
:102D000081708823A9F4EA81FB8180818695837094
:102D1000282FEA81FB81808186958695869587702C
:102D2000982F822F692F40E021E00E94CE0F1AC019
:102D3000EA81FB81808181708823A1F0EA81FB8197
:102D4000808186958370282FEA81FB81808186951A
:102D5000869586958770982F822F692F40E020E016
:102D60000E94CE0F81E0898389810F900F900F9090
:102D7000CF91DF910895DF93CF93CDB7DEB728973A
:102D80000FB6F894DEBF0FBECDBF9C838B837E83CE
:102D90006D831A828B819C81009709F444C0EB817A
:102DA000FC81808186958370282FEB81FC81808156
:102DB0008695869586958770982F822F692F0E9419
:102DC000E9118983EB81FC8180818170282F30E0BB
:102DD00038872F838F819885009731F02F81388530
:102DE0002130310581F01DC08981882321F4ED81D6
:102DF000FE81108216C08981813099F4ED81FE81B7
:102E000081E080830EC08981882329F4ED81FE81D1
:102E100081E0808306C08981813019F4ED81FE81D3
:102E2000108281E08A838A8128960FB6F894DEBFEB
:102E30000FBECDBFCF91DF910895DF93CF9300D028
:102E4000CDB7DEB79A83898389819A810097A9F1EA
:102E5000E981FA81808181708823A9F0E981FA8172
:102E6000808186958370282FE981FA8180818695FB
:102E7000869586958770982F822F692F41E021E0F3
:102E80000E94CE0F1AC0E981FA8180818170882367
:102E9000A1F4E981FA81808186958370282FE981E8
:102EA000FA8180818695869586958770982F822FE6
:102EB000692F41E020E00E94CE0F0F900F90CF913C
:102EC000DF910895DF93CF9300D0CDB7DEB79A831B
:102ED000898389819A810097A1F0E981FA818081B3
:102EE00086958370282FE981FA8180818695869561
:102EF00086958770982F822F692F41E021E00E94EC
:102F0000CE0F0F900F90CF91DF910895DF93CF9365
:102F100000D0CDB7DEB79A83898389819A810097E3
:102F2000A1F0E981FA81808186958370282FE9815B
:102F3000FA8180818695869586958770982F822F55
:102F4000692F41E020E00E94CE0F0F900F90CF91AB
:102F5000DF910895DF93CF9300D0CDB7DEB79A838A
:102F6000898389819A81009791F0E981FA81808132
:102F700086958370282FE981FA81808186958695D0
:102F800086958770982F822F692F0E9463120F9069
:102F90000F90CF91DF910895DF93CF93CDB7DEB738
:102FA0000E943F02CF91DF910895DF93CF9300D02D
:102FB00000D0CDB7DEB789836A834B830E9461025C
:102FC0000E94D802883011F01C8222C082EA0E943E
:102FD0007C020E94D802883119F081E08C8318C0ED
:102FE00089810E947C020E94D802883219F082E016
:102FF0008C830EC08A810E947C020E94D802883293
:1030000019F083E08C8304C00E94710284E08C83F9
:103010008C810F900F900F900F90CF91DF910895BA
:10302000DF93CF9300D000D00F92CDB7DEB7898366
:103030007B836A834C830E9461020E94D80288309D
:1030400011F01D8230C082EA0E947C020E94D802E8
:10305000883119F081E08D8326C089810E947C022D
:103060000E94D802883219F082E08D831CC00E9431
:1030700061020E94D802803119F083E08D8313C071
:1030800083EA0E947C020E94D802803419F084E016
:103090008D8309C00E94B902EA81FB8180830E946E
:1030A000710285E08D838D810F900F900F900F90AE
:1030B0000F90CF91DF910895DF93CF9300D0CDB7DC
:1030C000DEB79A838983E981FA8180818370282F12
:1030D000E981FA818081869586958770982F822F65
:1030E000692F41E00E94E90F0F900F90CF91DF917F
:1030F0000895DF93CF9300D000D0CDB7DEB79C8387
:103100008B83EB81FC8180818370282FEB81FC8194
:103110008081869586958770982F822F692F41E050
:103120000E94E9101A82198205C089819A8101964C
:103130009A83898389819A812EE480329207ACF345
:10314000EB81FC8180818370282FEB81FC81808161
:10315000869586958770982F822F692F40E00E9470
:10316000E9100F900F900F900F90CF91DF9108957D
:10317000DF93CF9300D000D000D0CDB7DEB79E83D1
:103180008D83ED81FE8180818370282FED81FE810A
:103190008081869586958770982F822F692F41E0D0
:1031A0000E94E91019821A821B821C820BC089813D
:1031B0009A81AB81BC810196A11DB11D89839A833F
:1031C000AB83BC8389819A81AB81BC81803828E341
:1031D000920721E0A20720E0B20748F3ED81FE81CB
:1031E00080818370282FED81FE8180818695869570
:1031F0008770982F822F692F40E00E94E910269651
:103200000FB6F894DEBF0FBECDBFCF91DF9108950A
:10321000DF93CF93CDB7DEB727970FB6F894DEBF15
:103220000FBECDBF9C838B837E836D834F838D8147
:103230009E8164E10E9445191A82198215C0298174
:103240003A818D819E81DC01A20FB31F29813A81D1
:103250008B819C81FC01E20FF31F80818C9389811B
:103260009A8101969A8389838F81282F30E0898102
:103270009A81821793071CF327960FB6F894DEBF46
:103280000FBECDBFCF91DF910895DF93CF9300D0D4
:1032900000D00F92CDB7DEB79C838B836D831A82EB
:1032A00019820DC029813A818B819C81FC01E20F3A
:1032B000F31F108289819A8101969A8389838D8177
:1032C000282F30E089819A81821793075CF30F9051
:1032D0000F900F900F900F90CF91DF910895DF9393
:1032E000CF9300D0CDB7DEB719820E94AF19898382
:1032F0008981813019F482E08A832BC087E592E0CE
:1033000020EC32E0B9010E94BC1B009761F48BE60F
:1033100092E025ED32E0B9010E94BC1B0097C1F498
:1033200081E08A8316C08FE792E020EC32E0B90199
:103330000E94BC1B009761F483E992E025ED32E026
:10334000B9010E94BC1B009719F481E08A8301C077
:103350001A828A810F900F90CF91DF910895DF93A9
:10336000CF93CDB7DEB7E3970FB6F894DEBF0FBEAD
:10337000CDBFCE0101969BA78AA7A0E6B0E0BDA76E
:10338000ACA7B7E0BEA7ECA5FDA500808CA59DA5C8
:1033900001969DA78CA7AAA5BBA50C92EAA5FBA5A3
:1033A0003196FBA7EAA7FEA5F150FEA78EA58823BC
:1033B00051F78DE0FE013896DF01982F1D929A9506
:1033C000E9F7DE015596B8ABAFA7E0E6F0E0FAAB5F
:1033D000E9ABF7E0FBABA9A9BAA90C90E9A9FAA956
:1033E0003196FAABE9ABAFA5B8A90C92EFA5F8A955
:1033F0003196F8ABEFA7FBA9F150FBAB8BA9882363
:1034000051F78DE0FE017C96DF01982F1D929A9571
:10341000E9F780EC92E09E012F5F3F4FB9010E94D7
:10342000BC1B009769F485ED92E09E012B5E3F4F37
:10343000B9010E94BC1B009719F4A1E0A9A701C023
:1034400019A689A5E3960FB6F894DEBF0FBECDBFCF
:10345000CF91DF910895DF93CF9300D00F92CDB736
:10346000DEB784E790E00E94220284E990E00E94A7
:10347000220282EB90E00E94220286EC90E00E9401
:10348000220289ED90E00E9422028DEE90E00E94DF
:10349000220283E091E00E9422020E9405028983B9
:1034A00089810E94EB018981282F30E03B832A83A8
:1034B0008A819B818133910521F12A813B812233CD
:1034C000310534F48A819B818033910561F022C0FB
:1034D0002A813B8122333105B9F08A819B81833374
:1034E0009105A9F017C081E191E00E94220280E3DA
:1034F00091E00E9422020F900F900F90CF91DF91E8
:1035000008950E948F1AB5CF0E949A1AB2CF0E94D6
:10351000A51AAFCF8FE391E00E942202AACFDF93DA
:10352000CF93CDB7DEB78FE691E00E942202CF9114
:10353000DF910895DF93CF93CDB7DEB780E891E0B8
:103540000E942202CF91DF910895DF93CF93CDB7F0
:10355000DEB782E991E00E942202CF91DF910895C7
:10356000DF93CF93CDB7DEB788EA92E00E9449009F
:1035700088EA92E00E94B7011092D402CF91DF91C5
:103580000895DF93CF9300D0CDB7DEB71FC00E9460
:1035900005028093BF028091BF020E94EB018091DF
:1035A000BF028D3099F08091BE02843179F0809114
:1035B000BE02882F90E02091BF02FC01E751FD4F31
:1035C00020838091BE028F5F8093BE028091BF02F4
:1035D0008D30E9F61092BF0285EA91E00E94220246
:1035E0008091D402282F30E03A83298389819A81FF
:1035F0008130910531F029813A8122303105A1F0E5
:1036000025C04091BE0289EE92E020EC32E0B90183
:103610000E9408192091BE0289EE92E0622F0E945A
:1036200045191092BE0212C04091BE0289EE92E08E
:1036300025ED32E0B9010E9408192091BE0289EE01
:1036400092E0622F0E9445191092BE020F900F90D7
:10365000CF91DF910895DF93CF9300D000D00F92E8
:10366000CDB7DEB70E94B01A8091D402282F30E087
:103670003D832C838C819D8182309105B9F12C8111
:103680003D812330310554F48C819D810097C1F038
:103690002C813D8121303105F9F0E6CF8C819D816F
:1036A0008430910509F460C02C813D8124303105BE
:1036B0003CF18C819D818530910509F45AC0D4CFAD
:1036C00088EA91E00E9422028EEC91E00E942202A0
:1036D00081E08093D402C8CF85EF91E00E9422025E
:1036E0000E94C11A82E08093D402BECF86E092E0AD
:1036F0000E9422020E94C11A83E08093D402B4CFB8
:1037000080EC92E025ED32E0B9010E946F198983C7
:103710008981282F30E03B832A838A819B818130F5
:10372000910591F02A813B8122303105A9F08A81EF
:103730009B81009709F098CF87E192E00E942202D6
:1037400081E08093D40290CF85E292E00E94220231
:1037500085E08093D40288CF8EE392E00E9422021B
:1037600084E08093D40280CF0E942B1A1092D4025E
:103770007BCF1092D40278CFFB01DC018D910190B8
:0E37800080190110D9F3990B0895F894FFCF2A
:10378E004D4153544552000000000000000000005F
:10379E00000000000A0D57656C636F6D6520746F35
:1037AE00206D61737465722075736572206D6F6420
:1037BE00650A0D002D2D2D2D2D2D2D2D2D2D2D2D63
:1037CE002D2D2D2D2D2D2D2D2D2D2D2D2D2D2D0A3E
:1037DE000D000A0D312D20416464206E6577207531
:1037EE007365720A0D00322D2052656D6F7665205D
:1037FE006120757365720A0D00332D204C69737448
:10380E0020616C6C2075736572730A0D00302D206B
:10381E0045786974206D6173746572207573657275
:10382E000A0D00596F75722063686F6963653A20DF
:10383E00000A0D4C6F6767696E67206F7574206F95
:10384E0066206D617374657220757365720A0D0062
:10385E00417070206C6F636B65640A0D0A0D000A6F
:10386E000D57726F6E672063686F6963652C2070E9
:10387E006C6561736520656E746572206120636F7F
:10388E007272656374206F7074696F6E0A0D000A30
:10389E000D416464206E657720757365720A0D00A4
:1038AE000A0D52656D6F7665206120757365720A1B
:1038BE000D000A0D4C69737420616C6C2075736574
:1038CE0072730A0D000D0A0057656C636F6D6520EB
:1038DE00746F204D6F62696C6520436F6E74726FEA
:1038EE006C6C65642053797374656D0A0D002D2D13
:1038FE002D2D2D2D2D2D2D2D2D2D2D2D2D2D2D2DEA
:10390E002D2D2D2D2D2D2D2D2D2D2D2D2D2D2D2DD9
:10391E002D0A0A0D00456E74657220757365726E00
:10392E00616D653A2000456E746572207061737327
:10393E00776F72643A200057726F6E6720646174FD
:10394E0061210A0D004E6F726D616C207573657288
:10395E0020616374697661746564210A0D004D619E
:10396E007374657220757365722061637469766114
:10397E00746564210A0D004F6D6172000000000035
:10398E00000000000000000000000059616D616E33
:10399E00790000000000000000000000000000534D
:1039AE0068657269660000000000000000000000FB
:1039BE0000000041736872616600000000000000A4
:1039CE00000000000000000A0300000000000C01CF
:0E39DE00000C03000100C4097D00BC00FA00CB
:00000001FF
